:020000040800F2
:100000004807002091010008990100089B010008A1
:100010009D0100089F010008A101000800000000E8
:10002000000000000000000000000000A301000824
:10003000A501000800000000A70100080515000840
:10004000AB010008AB010008AB010008AB010008E0
:10005000AB010008AB010008AB010008AB010008D0
:10006000AB010008AB010008AB010008AB010008C0
:10007000AB010008AB010008AB010008AB010008B0
:10008000AB010008AB010008AB010008AB010008A0
:10009000AB010008AB010008AB01000879060008BD
:1000A000AB010008AB010008AB010008AB01000880
:1000B000AB010008AB010008AB010008AB01000870
:1000C000AB010008AB010008AB010008AB01000860
:1000D000AB010008AB010008AB010008AB01000850
:1000E000AB010008AB010008AB01000800F002F80A
:1000F00000F03FF80AA090E8000C82448344AAF183
:100100000107DA4501D100F034F8AFF2090EBAE880
:100110000F0013F0010F18BFFB1A43F0010318473B
:100120009C200000BC200000103A24BF78C878C191
:10013000FAD8520724BF30C830C144BF04680C60ED
:10014000704700000023002400250026103A28BF35
:1001500078C1FBD8520728BF30C148BF0B60704739
:10016000642900F07180002070471FB51FBD10B5D5
:1001700010BD00F0ACF91146FFF7F7FF01F078FD74
:1001800000F0CAF903B4FFF7F2FF03BC00F0CEF9A8
:100190000948804709480047FEE7FEE7FEE7FEE71B
:1001A000FEE7FEE7FEE7FEE7FEE7FEE70448054957
:1001B000054A064B70470000C1150008ED00000815
:1001C0004801002048070020480300204803002081
:1001D0000FB41CB5074B06AA7B44694600900598EE
:1001E00000F057F90020694600F066F91CBC5DF884
:1001F00014FB0000DD02000070B50446856900684C
:10020000C10601D5302600E02026C00707D070BD0A
:10021000D4E9012130469047206A401C20626D1EBF
:10022000F6D570BD70B5044685690078C00707D162
:1002300070BDD4E9012120209047206A401C206233
:100240006D1EF6D570BD00002DE9F0410646002474
:1002500010687529314616A510D0AFF3008000282C
:1002600002DA404213A507E031688A0701D512A5DA
:1002700002E0490704D511A5012401E0AFF3008095
:1002800000210A2206F1240709E0B0FBF2FCB0FBD2
:10029000F2F302FB1C00303078541846491C002849
:1002A000F3D123462A463046BDE8F04100F092B82B
:1002B000000000002D0000002B00000020000000C6
:1002C0002DE9F0474FF0000A89460446C0F820A007
:1002D0002046E1688847002876D0252806D0D4E952
:1002E00001219047206A401C2062F1E7E168204626
:1002F00000258847C4F81CA006460027C4F818A0AB
:100300002A2E09D0304601F091FA38B304EB870861
:10031000303EC8F8186019E059F8041B204604EB79
:1003200087029161E1688847012F064618D1E0698C
:10033000002820DA25F020051DE0D8F8180000EB91
:10034000800006EB40003038C8F818002046E1680D
:100350008847064601F06AFA0028EED1012F0AD03C
:100360002E2E08D12046E16888477F1C0646022FC2
:1003700045F02005C4DBA069002803DA404245F0BF
:100380000105A061E80701D025F01005B6B1A6F17E
:100390004100192802D8203645F400654A46314606
:1003A000204625604D46FFF7DBFE58B1012806D0F8
:1003B000ED1D25F0070000F1080989E704E005F1CB
:1003C000040985E730468AE7206ABDE8F087704770
:1003D000704770472DE9F0470D469946924604460E
:1003E00000F124080168880604D5E06921F01001B5
:1003F000216000E00120A84201DD471B00E000274A
:10040000A1697A1902EB0900081AA0612078C006D8
:1004100002D42046FFF7F0FE002608E0D4E90121CF
:100420001AF806009047206A401C761C20624E4550
:10043000F4DB2078C0060AD52046FFF7DDFE06E093
:10044000D4E9012130209047206A401C2062381EE8
:10045000A7F10107F4DC07E0D4E9012118F8050051
:100460009047206A401C2062281EA5F10105F3DC9C
:100470002046FFF7D7FE2078000602D50220BDE80F
:10048000F0870120FBE7000001694A1C026108783F
:10049000704700B58FB0CDE90131002105910549C4
:1004A0007944CDE9031011466846FFF709FF0FB004
:1004B00000BD0000E5FFFFFF0A6802F8010B0A60BB
:1004C0007047000000487047E800002070477546FC
:1004D000FFF7F8FFAE4605006946534620F00700D7
:1004E000854618B020B5FFF761FEBDE820404FF00B
:1004F00000064FF000074FF000084FF0000B21F00E
:100500000701AC46ACE8C009ACE8C009ACE8C009DA
:10051000ACE8C0098D46704710B50446AFF30080C3
:100520002046BDE81040FFF72DBE0000014918200D
:10053000ABBEFEE726000200F8B504460D4616469F
:100540002248844204D10121042000F013FE2EE051
:100550001F48844204D10121082000F00BFE26E050
:100560001C48844204D10121102000F003FE1EE04B
:100570001948844204D10121202000F0FBFD16E03F
:100580001648844204D10121402000F0F3FD0EE022
:100590001348844204D10121802000F0EBFD06E0E5
:1005A0001048844203D10121801500F0E3FDA8B278
:1005B000ADF8000002208DF80200F0B28DF80300C3
:1005C0006946204600F03AF9F8BD000000080140F5
:1005D000000C0140001001400014014000180140CF
:1005E000001C01400020014070B500F097FF134847
:1005F0000068134AB0FBF2F1481EB0F1807F00D3CF
:100600001BE0481E4FF0E022506150170F220028D7
:1006100004DB13071C0E0B4B1C5406E013071D0EC6
:10062000094B00F00F04241F1D5500BF00204FF0A0
:10063000E02290610720106100BF70BD74000020AF
:1006400040420F0000E400E018ED00E000B5024673
:1006500003E04FF47A7000F005F8101EA2F10102D9
:10066000F7D100BD0349086000BF024909680029AD
:10067000FBD170471000002010B54FF4807000F0DF
:100680005FF888B10949002001F0BAFC084901204F
:1006900001F0B6FC012007490870000200F044F8A0
:1006A0004FF4807000F046F810BD000000000020FC
:1006B000020000200C00002010B50121082000F0ED
:1006C00059FD4FF48070144908800420C870134805
:1006D00000F0B4F80121084600F04CFD082101208B
:1006E00000F08CF84FF480700D490860002008710C
:1006F0000C20487101208871084600F035F8172059
:10070000084908700F20487088700120C87008469A
:1007100000F0E8FC10BD000024000020000C0140A7
:100720001C000020280000200149086070470000DC
:10073000140401400149086070470000140401409E
:10074000014600200022074B1B6803EA0102054B0B
:1007500014331B680B4013B10AB1012000E00020E4
:100760007047000000040140002123498279002ADB
:100770003AD00A46126803689A430B461A600A1D6B
:10078000126803689A430B1D1A60027911440A68C3
:1007900003681A430A60184A0832126803689A43C9
:1007A000154B08331A601A1D126803689A43124BDE
:1007B0000C331A604279102A0ED11A1F126803688E
:1007C0001A430D4B08331A601A1D126803681A4346
:1007D000094B0C331A600DE00749427911440A684D
:1007E00003681A430A6005E0027911440A68036845
:1007F0009A430A60704700000004014030B50022AF
:100800008B071C0F0F2303FA04F20B4B8C1053F8C9
:1008100024309343084C8D1044F8253023468C1027
:1008200053F824308C07240F00FA04F42343024CBD
:100830008D1044F8253030BD080001402DE9F0410D
:10084000024600250026002000230024002791F8FE
:1008500003C00CF00F0591F803C00CF0100CBCF1B4
:10086000000F03D091F802C04CEA050591F800C0D2
:10087000BCF1000F31D0146800202BE04FF0010CC8
:100880000CFA00F3B1F800C00CEA03069E4220D136
:1008900083004FF00F0C0CFA03F7BC4305FA03FC7E
:1008A0004CEA040491F803C0BCF1280F06D14FF0C4
:1008B000010C0CFA00FCC2F814C00AE091F803C065
:1008C000BCF1480F05D14FF0010C0CFA00FCC2F846
:1008D00010C0401C0828D1D31460B1F800C0BCF18E
:1008E000FF0F34DD546800202EE000F1080C4FF0BB
:1008F000010808FA0CF3B1F800C00CEA03069E42A6
:1009000021D183004FF00F0C0CFA03F7BC4305FA1A
:1009100003FC4CEA040491F803C0BCF1280F05D194
:1009200000F1080C08FA0CF8C2F8148091F803C022
:10093000BCF1480F07D100F1080C4FF0010808FA8C
:100940000CF8C2F81080401C0828CED35460BDE8D3
:10095000F08100002DE9F04106460F469046022442
:10096000042551490E705148008800287ED04F4818
:1009700000884F49088088E04C480088A04211D187
:100980003220FFF763FE49480088A0420AD146485A
:100990000078401C4449087008460078FF2801DDB3
:1009A000FF20087041480088A84210D13220FFF78C
:1009B0004DFE3E480088A84209D13B480078401EC1
:1009C000394908700846007808B900200870962058
:1009D000FFF73CFE37480078042844DB33480088A2
:1009E000A04217D130480078FF2803DDFF202E49B0
:1009F00008702BE02F4800780A2805DB2A48007889
:100A00000A302949087021E027480078401C26490F
:100A100008701BE025480088A84216D122480078BB
:100A200018B900202049087010E0224800780A28F0
:100A300005DB1D4800780A381B49087006E01A4893
:100A40000078401C1849087000E025E0164802783C
:100A500019A11A48FFF7BCFB4146384600F036FFA3
:100A6000164800F0D1FF1148008800E015E0104959
:100A7000088010480078401C0E4908706420FFF779
:100A8000E5FD0A48008800B906E0084800880849E2
:100A9000098888423FF470AF00BF00200549087004
:100AA00001480078BDE8F0813800002002000020F5
:100AB000440000203400002025640000A80000202D
:100AC00070B502460024002500230020958A138B70
:100AD0001B0445EA030626F07F4404EA01068E4221
:100AE00001D1012000E0002070BD21B1028842F058
:100AF0000102028004E002884FF6FE731A40028071
:100B0000704721B1028842F48072028004E00288BA
:100B10004FF6FF631A400280704721B1028842F409
:100B20000072028004E002884FF6FF531A400280F0
:100B300070470CB5024600200023019300930092F9
:100B40000B0F019321F07F41019B1BB1009B1433DC
:100B5000009303E0090C009B18330093009B1B6873
:100B60000B400BB1012000E000200CBD2DE9F0434B
:100B700085B004460D460026B1460427DFF8CC8038
:100B8000A6884FF6C0700640684600F003FBDDF80B
:100B900008802F48B8FBF0F01FFA80F946EA0906F2
:100BA000A68020884FF6FE71084020800026294943
:100BB000286888420CD828684000B8FBF0F087B25B
:100BC000042F00DA04273E4309F10100208427E0C6
:100BD000E8884BF6FF71884206D1286800EB400098
:100BE000B8FBF0F087B209E0286800EBC00101EB28
:100BF0000010B8FBF0F087B247F48047C7F30B0052
:100C000008B947F0010747F4004006434FF49670D7
:100C100009FB00F04FF47A7190FBF1F0401C208446
:100C2000A683208840F00100208026884FF6F5300A
:100C30000640A8886989084306432680A88929892F
:100C40000843208105B0BDE8F083000000127A005F
:100C500040420F00A08601000146088AC0B27047DA
:100C600012B141F0010102E04FF6FE73194001821A
:100C700070470182704700000EB500F019FEADE12B
:100C8000DC48008800F0CCFCDB490880084602887C
:100C9000DAA1DC48FFF79CFA0021072000F016FEDD
:100CA000D84800F0B1FED8480088012808D1C820F3
:100CB000FFF7CCFCD4480088012801D1D349087043
:100CC000CD48008806283CD2DFE800F003043C3D14
:100CD0007F8000BFCEA1D248FFF77AFA00210846F4
:100CE00000F0F4FDCE4800F08FFE26E0CD480288EB
:100CF000CDA1CB48FFF76CFA0021084600F0E6FDD5
:100D0000C74800F081FECC48008800F021FBC549AF
:100D1000088008460088C8490880BB480088082821
:100D20000BD1C820FFF792FCB7480088082804D1EF
:100D30000020B649087000F0BBFDB44800780128D7
:100D4000D4D035E100BFBDA1B548FFF741FA00217D
:100D5000084600F0BBFDB24800F056FEBC480088D3
:100D600000F0F6FABB49088008460088B8490880B8
:100D700026E0B8480288B8A1A948FFF729FA00215F
:100D8000084600F0A3FDA64800F03EFEB0480088EB
:100D900000F0DEFAAF49088008460088AC490880B8
:100DA0009948008808280BD1C820FFF74FFC9648C7
:100DB0000088082804D100209449087000F078FDCC
:100DC000924800780128D4D0F2E000BFA5A1944851
:100DD000FFF7FEF90021084600F078FD904800F08A
:100DE00013FEE0E0A4480088A4490988A44A1288B8
:100DF000CDE900210290A34803880288A2A1884877
:100E0000FFF7E6F90021084600F060FD844800F095
:100E1000FBFD00220321A4480088FFF79BFD9949B0
:100E2000088008460088A049088077480088012883
:100E300001D19E49087074480088082802D100201A
:100E400072490870AAE08C4800888C4909888C4A4D
:100E50001288CDE9002102908A48038888480288D8
:100E600093A16F48FFF7B4F90021084600F02EFD6A
:100E70006B4800F0C9FD0022032194480088FFF769
:100E800069FD7F49088008460088904908805E48CF
:100E90000088012801D18E4908705B480088082825
:100EA00002D100208149087074E0734800887349BA
:100EB0000988734A1288CDE900210290714803889D
:100EC0006E4802887AA15648FFF782F90021084649
:100ED00000F0FCFC524800F097FD002203217D4801
:100EE0000088FFF737FD6549088008460088794982
:100EF000088045480088012801D177490870424898
:100F00000088082802D10020714908703EE05A4844
:100F100001885A4800885A4A1288CDE90020029177
:100F2000584803885448028861A13D48FFF750F9AA
:100F30000021084600F0CAFC394800F065FD002297
:100F4000032166480088FFF705FD4B4908800846E5
:100F50000088624908802C48008801280FD164204D
:100F6000FFF774FB28480088012808D10020274992
:100F700008704E4908705649087057490870224851
:100F80000088082802D10020534908705248007890
:100F90000128BCD04E480078012886D0434800780C
:100FA00001283FF450AF1948007801283FF41AAFE8
:100FB00000BF1548008808280CD16420FFF746FBC5
:100FC00011480088082805D10120454908700020F3
:100FD0000E49087008480088064908804048007893
:100FE00000283FF44DAE0020024908803C490870BB
:100FF0000EBD00004C0000204E0000206E3D256418
:1010000020200000A800002002000020470000204F
:101010004D656E750A312D566F6C756D650000005B
:10102000C8000020060000200A566F6C756D653AF6
:101030002564202000000000040000204D656E752E
:101040000A322D4C696768742020202000000000BF
:10105000080000200A0000200A4C696768743A25DD
:10106000642020004D656E750A332D57696669202E
:1010700053657474696E67005E0000205A0000209A
:10108000560000205200002049503A2564202020BC
:10109000202020200A2533642E2533642E25336436
:1010A0002E2533640000000050000020480000207E
:1010B00049503A25642020200A2533642E253364C4
:1010C0002E2533642E2533640000000054000020D8
:1010D00049000020580000204A0000205C00002049
:1010E0004600002070B5002100230F22C47804B30D
:1010F000154C246804F4E064C4F5E064210AC1F1ED
:101100000403CA40447804FA03F18478144021436C
:1011100009010E4C0678A155047804F01F0501243E
:10112000AC4005786D11AD0005F1E025C5F8004132
:1011300009E0047804F01F050124AC40044D067852
:10114000761145F8264070BD0CED00E000E400E0AB
:1011500080E100E029B1064AD2690243044BDA611A
:1011600004E0034AD2698243014BDA617047000010
:101170000010024029B1064A92690243044B9A6169
:1011800004E0034A92698243014B9A617047000070
:101190000010024030B500210022002400232D4D14
:1011A0006D6805F00C0121B1042905D0082923D16F
:1011B00005E0294D056022E0274D05601FE0254D23
:1011C0006D6805F47012234D6D6805F480340225B6
:1011D00005EB92421CB9214D554305600BE01D4DB6
:1011E0006D6805F400351DB11C4D5543056002E0E6
:1011F000194D5543056002E0174D056000BF00BF63
:10120000144D6D6805F0F0010909154D6B5C05681A
:10121000DD4045600F4D6D6805F4E061090A104D31
:101220006B5C4568DD4085600A4D6D6805F4605172
:10123000C90A0B4D6B5C4568DD40C560054D6D68A6
:1012400005F44041890B074D6B5CC568B5FBF3F5B0
:10125000056130BD0010024000127A0000093D0017
:10126000600000207000002010B500F001F810BDF3
:101270000CB50020019000903348006840F48030A5
:101280003149086000BF3048006800F40030009029
:101290000198401C0190009818B90198B0F5A06F12
:1012A000F1D12948006800F4003010B1012000900D
:1012B00001E0002000900098012843D123480068F5
:1012C00040F01000214908600846006820F0030043
:1012D00008600846006840F0020008601A4840684C
:1012E000194948600846406848600846406840F42C
:1012F000806048600846406820F47C1048600846DA
:10130000406840F4E81048600846006840F080708B
:10131000086000BF0C48006800F000700028F9D099
:101320000948406820F003000749486008464068C3
:1013300040F00200486000BF0348406800F00C0025
:101340000828F9D10CBD0000001002400020024026
:101350000146654A11706548008800283DD0634801
:1013600000880F2839DD61480088614A1288904260
:10137000F4D05F480088032290FBF2F302FB1300D5
:10138000002842D15A480088584A1288801A594A7F
:101390001080104600884FF6FF7202EA4000564A5D
:1013A0001080544800884010544A108052480088E9
:1013B0004E4A1288801A504A1080504800884B4A82
:1013C0001288801A4D4A10804B48008860B9464800
:1013D000007818B90020444A10707EE04248007836
:1013E000401C414A107078E044480088002874D1BD
:1013F0003D480078642802D13B4A10706DE03A48BD
:101400000078401E384A107067E0394800884FF66F
:10141000FF7202EA4000374A1080354800884010C9
:10142000374A108031480088324A1288801A324A7E
:1014300010802E480088324A1288801A2F4A108065
:101440002D48008860B92848007818B90020264A3D
:10145000107042E024480078401C234A10703CE0A1
:101460002648008860B920480078642802D11E4AC6
:10147000107032E01C480078401E1B4A10702CE0AF
:101480001D4800881A4A1288801A1B4A10801B487F
:101490000088174A1288801A184A10801648008857
:1014A00060B91148007818B900200F4A107014E094
:1014B0000D480078401C0C4A10700EE00F48008860
:1014C00058B909480078642802D1074A107004E02E
:1014D00005480078401E044A107004480088044AF9
:1014E000108001480078704738000020000000207C
:1014F000440000203A0000203E0000204000002070
:101500003C0000200448006820B103480068401EE9
:1015100001490860704700001000002010B500214C
:1015200000200022214B5B6803F00C0121B104294B
:1015300006D0082928D107E01D4B1E4C236027E068
:101540001B4B1C4C236023E0184B5B6803F47010AA
:10155000164B5B6803F48032022303EB904022B900
:10156000154B4343134C23600DE0104B5B6803F4B1
:10157000003323B1104B43430E4C236003E00C4B6C
:1015800043430C4C236003E0094B0A4C236000BF2B
:1015900000BF064B5B68C3F30313084CE15C054BCB
:1015A0001B68CB40034C236010BD000000100240BC
:1015B00000127A007400002000093D00780000202D
:1015C00010B51348006840F0010011490860084652
:1015D0004068104908400E494860084600680E49B6
:1015E00008400B4908600846006820F48020086025
:1015F0000846406820F4FE0048604FF41F008860F1
:10160000FFF732FE4FF000600449086010BD000093
:10161000001002400000FFF8FFFFF6FE08ED00E0BA
:1016200001467B4A11707B480088002856D07948D3
:101630000088102852DA77480088774A128890424A
:10164000F4D075480088032290FBF2F302FB1300EC
:1016500000285BD170480088092814D16E480088A2
:101660006C4A1288801A6D4A108010460088C0109B
:101670006B4A1080694800884FF6FF7202EAC0008A
:10168000684A108013E064480088624A1288801A11
:10169000624A1080104600884FF6FF7202EA40004E
:1016A0005F4A10805D48008840105E4A10805C48A8
:1016B0000088584A1288801A594A10805948008870
:1016C000544A1288801A574A10805548008860B9D9
:1016D0004F48007818B900204D4A107090E04C48EF
:1016E0000078401E4A4A10708AE04E480088002860
:1016F000F4D147480078642802D1454A10707FE051
:1017000043480078401C424A107079E04148008804
:1017100009280DD140480088C010404A10803E483A
:1017200000884FF6FF7202EAC0003F4A10800CE0CA
:10173000394800884FF6FF7202EA4000374A1080AD
:10174000354800884010384A108032480088334AB3
:101750001288801A324A10802E480088324A128835
:10176000801A304A10802E48008860B928480078D6
:1017700018B90020264A107042E025480078401E23
:10178000234A10703CE02748008860B92048007860
:10179000642802D11E4A107032E01D480078401CB7
:1017A0001B4A10702CE01E4800881B4A1288801AC1
:1017B0001B4A10801B480088174A1288801A194A51
:1017C00010801748008860B91148007818B90020C7
:1017D0000F4A107014E00E480078401E0C4A10703A
:1017E0000EE01048008858B909480078642802D1F2
:1017F000074A107004E006480078401C044A107044
:1018000004480088044A10800148007870470000AE
:101810003800002000000020420000203A00002094
:101820003E000020400000203C00002030380A2804
:1018300001D20120704700207047000000B585B03C
:1018400001214805FFF786FC164801900020ADF8FD
:1018500008004BF6FF70ADF80A000020ADF80C0050
:10186000ADF80E004FF48040ADF8100001A90E480D
:10187000FFF77CF901210C48FFF737F90121082017
:10188000FFF778FCC020ADF800001C208DF80300A5
:1018900002208DF8020069460448FEF7CFFF05B02C
:1018A00000BD0000A086010000540040000C014073
:1018B00010B5012000F0CAF910BD10B5062000F0E7
:1018C000C5F910BD10B500F031F910BD70B5044672
:1018D0000D462DB9E1B241F0800000F0B7F906E005
:1018E00004F14001C9B241F0800000F0AFF970BDD1
:1018F00010B50446FEF778FE01210820FFF73AFCF8
:1019000001210820FFF736FC40F2034027490880F8
:101910001020C870022088702548FEF78FFF4FF412
:10192000F040224908801020C870022088702048AA
:10193000FEF784FF4FF47A50FEF794FE4FF4005008
:101940001B49103108604000086000F0E1F841F2E6
:101950008830FEF787FE00F0DBF84020FEF782FEBD
:1019600000F0D6F84020FEF77DFE4FF400501049FD
:10197000103108604000091D086000F0C9F84020DF
:10198000FEF770FE282000F061F9082000F05EF9F3
:10199000FFF78EFFFFF791FF0648047001460978B4
:1019A00041F0080000F052F910BD000016000020C0
:1019B000000C01401400002070B50546402D01DAEE
:1019C000402400E0002444F0800000F03FF970BDA6
:1019D00070B50546FFF776FF04460A2D03D1204671
:1019E000FFF7EAFF0FE0102C04D10021C02000F027
:1019F000ADF805E0502C03D10021802000F0A6F8BE
:101A0000284600F02CF970BD10B5044603E014F828
:101A1000010BFFF7DDFF20780028F8D110BD000092
:101A200070B50546002402203749086015B1400210
:101A3000086004E04FF480603349091D08604FF4EA
:101A4000F040324908804820C870022088702E4833
:101A50001038FEF7F3FE01202B4908600220FEF744
:101A600001FE29480838006800F4804008B144F0BD
:101A7000100425480838006800F4005008B144F00C
:101A8000200421480838006800F4805008B144F070
:101A900040041D480838006800F4006008B144F0B4
:101AA000800401201849091D08600220FEF7DAFDB4
:101AB0000120154908600220FEF7D4FD12480838BD
:101AC000006800F4804008B144F001040E48083872
:101AD000006800F4005008B144F002040A480838D5
:101AE000006800F4805008B144F004040648083847
:101AF000006800F4006008B144F0080401200249C5
:101B0000091D0860204670BD100C01401600002021
:101B100010B50120044908600220FEF7A3FD012052
:101B20000149091D086010BD100C014010B500BF2F
:101B30000020FFF775FF00F080000028F8D1042096
:101B4000FEF790FD0020FFF76BFF10BD70B5044657
:101B50000D4602203B4908601DB14002091F086084
:101B600003E04FF48060374908604FF4F040364995
:101B700008801020C8700220887032481438FEF7A0
:101B80005DFE4FF400602F4908604000086040008F
:101B900008604000086004F0800010B1C814091FFC
:101BA000086004F0400020B14FF480502549091F1F
:101BB000086004F0200020B14FF400502149091FB3
:101BC000086004F0100020B14FF480401D49091F47
:101BD0000860FFF79DFF4FF400601A49086040005D
:101BE0000860400008604000086004F0080010B180
:101BF000C814091F086004F0040020B14FF480509D
:101C00001049091F086004F0020020B14FF4005091
:101C10000C49091F086004F0010020B14FF4804016
:101C20000849091F0860FFF773FF4FF4006005497A
:101C3000091F08604000086040000860400008601C
:101C400070BD0000140C01401600002010B50446C1
:101C5000FFF76CFF00212046FFF778FF10BD10B59D
:101C60000446FFF763FF01212046FFF76FFF10BD19
:101C700008B5FEF7B9FC1022D1025248FEF75CFC11
:101C8000102211015048FEF757FC102251014D4817
:101C9000FEF752FC102251024C48FEF74DFC102278
:101CA00001214948FEF748FC102202214648FEF770
:101CB00043FC0420FFF71CFE00210846FFF706FE48
:101CC00043A0FFF7A1FE4FF47A70FEF7BFFCFFF7C9
:101CD000EFFD00F0A5F8FEF7EFFC71E0404800884A
:101CE0000090404803884048028840A14848FEF7D9
:101CF0006FFA00210846FFF7E9FD4548FFF784FE2B
:101D00006420FEF7A3FC4348008801280ED1C820B8
:101D1000FEF79CFC3F480088012807D129480C3079
:101D2000006880F4004027490C3108603948008879
:101D3000082808D1C820FEF789FC36480088082802
:101D400001D1FEF799FF334800880C280ED1C82036
:101D5000FEF77CFC2F4800880C2807D11A480C306D
:101D6000006880F0020018490C310860294800889A
:101D700003280ED1C820FEF769FC264800880328F6
:101D800007D111480C30006880F001000E490C3179
:101D9000086021480078012812D11E4800880028D8
:101DA0000BDB012204211D480088FEF7D3FD0D49FD
:101DB00008800846008819490880002016490870E4
:101DC0008CE70000000C01400008014000100140B9
:101DD000202A2A2A486920486F452A2A2A200000FA
:101DE0000A000020060000200000002054533D257A
:101DF00064202020202020202020200A766F6C3AAA
:101E00002564202C4C693D25642020200000000022
:101E100088000020020000200C00002004000020A8
:101E200038B5002000900125FFF708FD63218020D0
:101E300000F066F969465D2000F0E2F8BDF80000A8
:101E4000242800D000256946012000F0D9F8BDF80B
:101E5000000000F0800000B10025012D7ED100219E
:101E60005E2000F04DF988211E2000F049F98821FC
:101E70001F2000F045F98821202000F041F9882139
:101E8000212000F03DF98821222000F039F9882135
:101E9000232000F035F98821242000F031F9882131
:101EA000252000F02DF98821262000F029F9A52110
:101EB000272000F025F9A521282000F021F9A521EF
:101EC000292000F01DF9B9212A2000F019F901217B
:101ED0002B2000F015F901212C2000F011F9002130
:101EE0002D2000F00DF900212E2000F009F901212C
:101EF0002F2000F005F90121302000F001F9FF2129
:101F0000312000F0FDF8FF21322000F0F9F8012126
:101F1000332000F0F5F81021342000F0F1F8022110
:101F2000352000F0EDF80F21362000F0E9F80F2100
:101F3000372000F0E5F80021382000F0E1F800211A
:101F4000392000F0DDF801213A2000F0D9F8012114
:101F50003B2000F0D5F8FF213C2000E04DE000F0F0
:101F6000CFF8FF213D2000F0CBF800213E2000F00B
:101F7000C7F800213F2000F0C3F80021402000F006
:101F8000BFF800215B2000F0BBF810215C2000F0BE
:101F9000B7F804215D2000F0B3F80B217B2000F09E
:101FA000AFF800217C2000F0ABF8CA217D2000F0C2
:101FB000A7F883217E2000F0A3F8B6217F2000F04F
:101FC0009FF84C215E2000F09BF800240FE0412197
:101FD00001EB4401C8B20A2100F092F8422101EB62
:101FE0004401C8B2FF2100F08BF8601CC4B20D2C74
:101FF000EDDB4C215E2000F083F8284638BD000060
:1020000070B504460D46012600BF4FF40031384834
:10201000FEF78FFD0028F8D101213548FEF771FD4C
:1020200000BF34493248FEF74BFD0028F9D00022AA
:10203000B4212F48FEF714FE00BF2F492C48FEF7AD
:102040003FFD0028F9D02A481830008800F0010030
:1020500000284AD026481830008800F002000028E6
:1020600043D021462248FEF704FE00BF2249891CC6
:102070001F48FEF725FD0028F8D001211C48FEF777
:1020800040FD00BF1B491A48FEF71AFD0028F9D091
:102090000122B4211648FEF7E3FD00BF1549491C93
:1020A0001348FEF70DFD0028F8D0114818300088BD
:1020B00000F00200B8B100BF0E493F310C48FEF7F6
:1020C000FFFC0028F8D00A48FEF7C6FD2880012151
:1020D0000748FEF722FD00BF08490548FEF729FD25
:1020E0000028F9D102E0002600E00026304670BD4D
:1020F000005400400100030082000700100000109F
:1021000070B504460D46012600BF4FF40031274844
:10211000FEF70FFD0028F8D101212448FEF7F1FC5D
:1021200000BF23492148FEF7CBFC0028F9D000224C
:10213000B4211E48FEF794FD00BF1E491B48FEF760
:10214000BFFC0028F9D019481830008800F00100C1
:1021500048B316481830008800F0020018B3214632
:102160001248FEF786FD00BF1249891C0F48FEF792
:10217000A7FC0028F8D0E9B20C48FEF77AFD00BFB2
:102180000C49891C0948FEF79BFC0028F8D0012166
:102190000648FEF7C2FC00BF07490448FEF7C9FC29
:1021A0000028F9D100E00026304670BD0054004000
:1021B000010003008200070010000010DC2100086D
:1021C00000000020880000002801000864220008A8
:1021D00088000020C0060000440100080000000044
:1021E000320032001E001E0000000000000000004F
:1021F00000000000000000000000000000000000DF
:1022000000000000000000000000000000000000CE
:10221000000000000A0000000000000000000000B4
:10222000000000000000000000000000C000C0002E
:10223000A800A8000100010001000100000000004A
:102240000102030401020304060708090204060848
:1022500000A24A0400000000000000000102030484
:04226000060708095C
:04000005080000ED02
:00000001FF
