:020000040800F2
:100000001007002099010008A1010008A3010008C1
:10001000A5010008A7010008A901000800000000D0
:10002000000000000000000000000000AB0100081C
:10003000AD01000800000000AF0100081D14000819
:10004000B3010008B3010008B3010008B3010008C0
:10005000B3010008B3010008B3010008B3010008B0
:10006000B3010008B3010008B3010008B3010008A0
:10007000B3010008B3010008B3010008B301000890
:10008000B3010008B3010008B3010008B301000880
:10009000B3010008B3010008B3010008B907000864
:1000A000B3010008B3010008B3010008B301000860
:1000B000B3010008B3010008B3010008B301000850
:1000C000B3010008B3010008B3010008B301000840
:1000D000B3010008B3010008B3010008B301000830
:1000E000B3010008B3010008B301000800F002F8F2
:1000F00000F043F80AA090E8000C82448344AAF17F
:100100000107DA4501D100F038F8AFF2090EBAE87C
:100110000F0013F0010F18BFFB1A43F0010318473B
:10012000D4200000F4200000103A24BF78C878C121
:10013000FAD8520724BF30C830C144BF04680C60ED
:10014000704700000023002400250026103A28BF35
:1001500078C1FBD8520728BF30C148BF0B60704739
:10016000642900F0D780002070471FB59DE8030088
:1001700000F02CF91FBD10B510BD00F0FBF91146C1
:10018000FFF7F3FF01F0F8FC00F019FA03B4FFF7F2
:10019000F2FF03BC00F04AFA0948804709480047CB
:1001A000FEE7FEE7FEE7FEE7FEE7FEE7FEE7FEE727
:1001B000FEE7FEE704480549054A064B7047000084
:1001C000D9140008ED0000081001002010070020DD
:1001D000100300201003002070B5064600F0DAF886
:1001E000056806F10B0020F00704B4429CBF002014
:1001F00070BD2B466A68BAB11068A04210D304F1F2
:10020000080188423CBF5068586007D351681019F4
:1002100041601168091B016058601460101D70BDB9
:1002200013465268002AE7D12146284600F0BAF862
:100230000028DED170BD70B50446051F00F0AAF895
:100240000068002C14BF446870BD002C18BFAC427D
:100250003CBF20466468F8D301680A18AA4218BF58
:10026000456003D12A680546114401602868411998
:10027000A1421CBF6C6070BD616869602168084460
:10028000286070BD0FB41CB5074B06AA7B446946B5
:100290000090059800F02FF90020694600F03EF923
:1002A0001CBC5DF814FB00008D0200002DE9F0413C
:1002B0000E460446002020622046E168884730B39D
:1002C000252805D0D4E901219047206A401CF2E797
:1002D000E168204600278847050018D0A5F14100B5
:1002E000192802D820354FF40067324629462046A7
:1002F0002760FFF735FF40B1012804D0F61D26F036
:1003000007060836D8E7361DD6E72846DAE7206A1A
:10031000BDE8F0812DE9F0410646002410687529FA
:10032000314616A510D0AFF30080002802DA404213
:1003300013A507E031688A0701D512A502E0490735
:1003400004D511A5012401E0AFF3008000210A22A9
:1003500006F1240709E0B0FBF2FCB0FBF2F302FB6C
:100360001C00303078541846491C0028F3D123462D
:100370002A463046BDE8F04100F05EB800000000BB
:100380002D0000002B000000200000007047704787
:100390007047000000487047B80000207047704761
:1003A0007047704738B504460A4600206946AFF3E7
:1003B0000080002808BF38BD02460099204600F0A2
:1003C000B7F8012038BD012000F0CCB8F8B5AFF384
:1003D0000080054600200C46102000BF0646A819E4
:1003E000A0420DD9324669460020AFF300800700D5
:1003F00008BF00F0B7F80098A04218BF0546C4191E
:10040000FFF7C8FF05600746F01D20F007004619FA
:10041000284600F00AF8B44208BFF8BDA21B3146D6
:100420003868BDE8F84000F083B800210160C0E9F9
:1004300001107047102070472DE9F0470D4699468E
:100440009246044600F124080168880604D5E06954
:1004500021F01001216000E00120A84201DD471BCE
:1004600000E00027A1697A1902EB0900081AA061CF
:100470002078C00602D42046AFF30080002608E0B2
:10048000D4E901211AF806009047206A401C761C26
:1004900020624E45F4DB2078C0060AD52046AFF333
:1004A000008006E0D4E9012130209047206A401CFA
:1004B0002062381EA7F10107F4DC07E0D4E901212E
:1004C00018F805009047206A401C2062281EA5F1FC
:1004D0000105F3DC2046AFF300802078000602D54A
:1004E0000220BDE8F0870120FBE7000001694A1CFB
:1004F00002610878704700B58FB0CDE90131002165
:10050000059105497944CDE9031011466846FFF786
:10051000CDFE0FB000BD0000E5FFFFFF0A6802F846
:10052000010B0A607047000000487047B0000020CF
:10053000034640688C46002818BF88423CBF0346EB
:100540004068F8D318681844884207D00CF10300BB
:1005500020F00700001D411A521A0146081D0A60CA
:10056000FFF769BE10B500F039F8BDE8104000F0A3
:100570002FB870477546FFF7D7FFAE4605006946AE
:10058000534620F00700854618B020B5FFF712FE4D
:10059000BDE820404FF000064FF000074FF0000884
:1005A0004FF0000B21F00701AC46ACE8C009ACE805
:1005B000C009ACE8C009ACE8C0098D46704710B569
:1005C0000446AFF300802046BDE81040FFF7DEBDD3
:1005D000002801D000F02AB87047000010B50128AB
:1005E00005D0002103A000F027F8012010BD09A1CB
:1005F000F8E7000053494752544D454D3A204F7596
:1006000074206F662068656170206D656D6F72790A
:10061000000000003A2048656170206D656D6F72C2
:100620007920636F727275707465640001491820D7
:10063000ABBEFEE72600020070B505460C460A2058
:1006400000E06D1C00F011F835B128780028F8D1D1
:1006500002E0641C00F009F814B120780028F8D1F9
:10066000BDE870400A20AFF3008008B569468DF8F8
:1006700000000320ABBE08BDF8B504460D46164683
:100680002248844204D10121042000F0FFFC2EE026
:100690001F48844204D10121082000F0F7FC26E025
:1006A0001C48844204D10121102000F0EFFC1EE020
:1006B0001948844204D10121202000F0E7FC16E013
:1006C0001648844204D10121402000F0DFFC0EE0F6
:1006D0001348844204D10121802000F0D7FC06E0B9
:1006E0001048844203D10121801500F0CFFCA8B24C
:1006F000ADF8000002208DF80200F0B28DF8030082
:100700006946204600F03AF9F8BD000000080140B3
:10071000000C01400010014000140140001801408D
:10072000001C01400020014070B500F083FE13481A
:100730000068134AB0FBF2F1481EB0F1807F00D38D
:100740001BE0481E4FF0E022506150170F22002896
:1007500004DB13071C0E0B4B1C5406E013071D0E85
:10076000094B00F00F04241F1D5500BF00204FF05F
:10077000E02290610720106100BF70BD5C00002086
:1007800040420F0000E400E018ED00E000B5024632
:1007900003E04FF47A7000F005F8101EA2F1010298
:1007A000F7D100BD0349086000BF0249096800296C
:1007B000FBD170471000002010B54FF4807000F09E
:1007C0005FF888B10949002001F036FC0849012092
:1007D00001F032FC012007490870000200F044F8E3
:1007E0004FF4807000F046F810BD000000000020BB
:1007F000020000200C00002010B50121082000F0AC
:1008000045FC4FF48070144908800420C8701348D8
:1008100000F0B4F80121084600F038FC082101205E
:1008200000F08CF84FF480700D49086000200871CA
:100830000C20487101208871084600F035F8172017
:10084000084908700F20487088700120C870084659
:1008500000F07EFA10BD000024000020000C0140D2
:100860001C0000202800002001490860704700009B
:10087000140401400149086070470000140401405D
:10088000014600200022074B1B6803EA0102054BCA
:1008900014331B680B4013B10AB1012000E00020A3
:1008A0007047000000040140002123498279002A9A
:1008B0003AD00A46126803689A430B461A600A1D2A
:1008C000126803689A430B1D1A60027911440A6882
:1008D00003681A430A60184A0832126803689A4388
:1008E000154B08331A601A1D126803689A43124B9D
:1008F0000C331A604279102A0ED11A1F126803684D
:100900001A430D4B08331A601A1D126803681A4304
:10091000094B0C331A600DE00749427911440A680B
:1009200003681A430A6005E0027911440A68036803
:100930009A430A60704700000004014030B500226D
:100940008B071C0F0F2303FA04F20B4B8C1053F888
:1009500024309343084C8D1044F8253023468C10E6
:1009600053F824308C07240F00FA04F42343024C7C
:100970008D1044F8253030BD080001402DE9F041CC
:10098000024600250026002000230024002791F8BD
:1009900003C00CF00F0591F803C00CF0100CBCF173
:1009A000000F03D091F802C04CEA050591F800C091
:1009B000BCF1000F31D0146800202BE04FF0010C87
:1009C0000CFA00F3B1F800C00CEA03069E4220D1F5
:1009D00083004FF00F0C0CFA03F7BC4305FA03FC3D
:1009E0004CEA040491F803C0BCF1280F06D14FF083
:1009F000010C0CFA00FCC2F814C00AE091F803C024
:100A0000BCF1480F05D14FF0010C0CFA00FCC2F804
:100A100010C0401C0828D1D31460B1F800C0BCF14C
:100A2000FF0F34DD546800202EE000F1080C4FF079
:100A3000010808FA0CF3B1F800C00CEA03069E4264
:100A400021D183004FF00F0C0CFA03F7BC4305FAD9
:100A500003FC4CEA040491F803C0BCF1280F05D153
:100A600000F1080C08FA0CF8C2F8148091F803C0E1
:100A7000BCF1480F07D100F1080C4FF0010808FA4B
:100A80000CF8C2F81080401C0828CED35460BDE892
:100A9000F08100002DE9F0410446012508260227D7
:100AA00034490C803448008800285CD032480088E3
:100AB0003249088050E06420FFF768FE3048007833
:100AC000032839DB2C480088A8420CD1294800882B
:100AD000642802D1274908801FE026480088401C6E
:100AE0002449088019E024480088B0420CD12148EC
:100AF000008818B900201F4908800EE01D480088B2
:100B0000401E1C49088008E01B480088B84203D1F9
:100B10000A201849088000E024E01648028819A13C
:100B20001C48FFF7AFFB00F047FE0021084600F02D
:100B300051FE184800F0ECFE0F4800880F4908806D
:100B40000F480078401C0E4908706420FFF71EFE15
:100B50000948008800B905E0074800880749098866
:100B60008842A8D000BF00200549087001480078DD
:100B7000BDE8F08138000020020000204400002081
:100B800034000020202020566F6C756D653D256473
:100B9000000000009000002070B5024600240025EF
:100BA00000230020958A138B1B0445EA030626F0D8
:100BB0007F4404EA01068E4201D1012000E00020BA
:100BC00070BD21B1028842F00102028004E0028877
:100BD0004FF6FE731A400280704721B1028842F43A
:100BE0008072028004E002884FF6FF631A400280A0
:100BF000704721B1028842F40072028004E002884A
:100C00004FF6FF531A40028070470CB50246002091
:100C100000230193009300920B0F019321F07F4179
:100C2000019B1BB1009B1433009303E0090C009B54
:100C300018330093009B1B680B400BB1012000E0B0
:100C400000200CBD2DE9F04385B004460D4600267A
:100C5000B1460427DFF8CC80A6884FF6C070064066
:100C6000684600F023FADDF808802F48B8FBF0F062
:100C70001FFA80F946EA0906A68020884FF6FE7121
:100C80000840208000262949286888420CD8286816
:100C90004000B8FBF0F087B2042F00DA04273E438F
:100CA00009F10100208427E0E8884BF6FF718842B3
:100CB00006D1286800EB4000B8FBF0F087B209E0ED
:100CC000286800EBC00101EB0010B8FBF0F087B220
:100CD00047F48047C7F30B0008B947F0010747F412
:100CE000004006434FF4967009FB00F04FF47A7110
:100CF00090FBF1F0401C2084A683208840F0010086
:100D0000208026884FF6F5300640A8886989084378
:100D100006432680A88929890843208105B0BDE8BB
:100D2000F083000000127A0040420F00A08601000C
:100D30000146088AC0B2704712B141F0010102E0D9
:100D40004FF6FE7319400182704701827047000020
:100D500070B5002100230F22C47804B3154C246819
:100D600004F4E064C4F5E064210AC1F10403CA405C
:100D7000447804FA03F184781440214309010E4CAD
:100D80000678A155047804F01F050124AC400578CD
:100D90006D11AD0005F1E025C5F8004109E00478CA
:100DA00004F01F050124AC40044D0678761145F887
:100DB000264070BD0CED00E000E400E080E100E0C2
:100DC0002DE9F04104460E4627463846FFF704FA5F
:100DD000054600F0F1FC0021084600F0FBFC85A16F
:100DE0008748FFF74FFA864800F092FDF8E000F0E0
:100DF000E3FC8449012001F01FF90021084600F0BE
:100E0000E9FC7F4800F084FD4FF49670FFF7BEFCCC
:100E10007C480088B0B97C480078401C7A4908704A
:100E20000A20FFF7B3FC784800780A280ADB002084
:100E30007649087076490870734908706DA170484A
:100E4000FFF720FA6F48008872490988884201D06C
:100E5000012000E000206B49098809B1012100E070
:100E600000210840002873D00020674908706548B9
:100E7000007866490978685464480078401C6349E2
:100E80000870032C04D0042C22D0052C78D148E023
:100E90005E480078012804D0022809D0032815D123
:100EA0000DE0584802885CA15548FFF7EBF90DE0CA
:100EB000544802885BA15248FFF7E4F906E0514824
:100EC00002885CA14E48FFF7DDF900BF00BF57E084
:100ED0004E480078012806D002280BD0032810D0F5
:100EE00004281CD114E0474802884BA14448FFF76E
:100EF000C9F914E0434802884AA14148FFF7C2F902
:100F00000DE0404802884BA13D48FFF7BBF906E0E1
:100F10003C4802884BA13A48FFF7B4F900BF00BF34
:100F20002EE03A480078062828D2DFE800F02703B0
:100F30000A1219203348028837A13148FFF7A2F975
:100F40001CE03048028837A12D48FFF79BF915E0D7
:100F500017E02C48028837A12948FFF793F90DE0E4
:100F60002848028837A12648FFF78CF906E0254873
:100F7000028838A12248FFF785F900BF00BF00BFF3
:100F800000BF204800882349088020480078A042FC
:100F900026D100201D4908703249086015E031480B
:100FA0000068285C2F490968715C884205D118489F
:100FB0000078401C1649087002E0002014490870AF
:100FC00028480068401C2749086026480068A0425D
:100FD000E5DB0F480078A04202D1012022490870C9
:100FE0002148007801287FF402AF2846FFF723F953
:100FF000BDE8F08150617373776F72643A0000004E
:101000009000002000000020370000202C0000206D
:10101000350000204400002050617373776F7264C4
:101020003A25640050617373776F72643A2A2564BD
:101030000000000050617373776F72643A2A2A25AA
:101040006400000050617373776F72643A2A2A2A31
:101050002564000050617373776F72643A2A2A2AFC
:101060002A256400300000203600002029B1064AFD
:10107000D2690243044BDA6104E0034AD269824335
:10108000014BDA61704700000010024029B1064AA6
:1010900092690243044B9A6104E0034A92698243D5
:1010A000014B9A61704700000010024030B50021EA
:1010B0000022002400232D4D6D6805F00C0121B1A4
:1010C000042905D0082923D105E0294D056022E037
:1010D000274D05601FE0254D6D6805F47012234D06
:1010E0006D6805F48034022505EB92421CB9214D50
:1010F000554305600BE01D4D6D6805F400351DB1CD
:101100001C4D5543056002E0194D5543056002E052
:10111000174D056000BF00BF144D6D6805F0F0016C
:101120000909154D6B5C0568DD4045600F4D6D6824
:1011300005F4E061090A104D6B5C4568DD4085608F
:101140000A4D6D6805F46051C90A0B4D6B5C45682A
:10115000DD40C560054D6D6805F44041890B074DC4
:101160006B5CC568B5FBF3F5056130BD001002404E
:1011700000127A0000093D004600002056000020C1
:1011800010B500F001F810BD0CB5002001900090E2
:101190003348006840F480303149086000BF30486F
:1011A000006800F4003000900198401C0190009805
:1011B00018B90198B0F5A06FF1D12948006800F482
:1011C000003010B10120009001E000200090009854
:1011D000012843D12348006840F0100021490860ED
:1011E0000846006820F0030008600846006840F0E8
:1011F000020008601A48406819494860084640687B
:1012000048600846406840F480604860084640688E
:1012100020F47C1048600846406840F4E8104860BC
:101220000846006840F08070086000BF0C48006805
:1012300000F000700028F9D00948406820F0030051
:10124000074948600846406840F00200486000BF17
:101250000348406800F00C000828F9D10CBD0000DC
:1012600000100240002002400146654A1180654896
:10127000008800283DD0634800880F2839DD614888
:101280000088614A12889042F4D05F4800880322A7
:1012900090FBF2F302FB1300002842D15A48008869
:1012A000584A1288801A594A1080104600884FF612
:1012B000FF7202EA4000564A1080544800884010ED
:1012C000544A1080524800884E4A1288801A504A68
:1012D0001080504800884B4A1288801A4D4A10806E
:1012E0004B48008860B94648008818B90020444A35
:1012F00010807EE042480088401C414A108078E01F
:1013000044480088002874D13D480088642802D1F0
:101310003B4A10806DE03A480088401E384A1080F1
:1013200067E0394800884FF6FF7202EA4000374A0A
:101330001080354800884010374A108031480088B6
:10134000324A1288801A324A10802E480088324A67
:101350001288801A2F4A10802D48008860B92848CA
:10136000008818B90020264A108042E024480088EE
:10137000401C234A10803CE02648008860B9204881
:101380000088642802D11E4A108032E01C48008880
:10139000401E1B4A10802CE01D4800881A4A128803
:1013A000801A1B4A10801B480088174A1288801A2E
:1013B000184A10801648008860B91148008818B98A
:1013C00000200F4A108014E00D480088401C0C4A91
:1013D00010800EE00F48008858B90948008864283A
:1013E00002D1074A108004E005480088401E044AE4
:1013F000108004480088044A108001480078704733
:101400003800002000000020440000203A000020A6
:101410003E000020400000203C00002004480068FE
:1014200020B103480068401E014908607047000071
:101430001000002010B5002100200022214B5B6825
:1014400003F00C0121B1042906D0082928D107E0B6
:101450001D4B1E4C236027E01B4B1C4C236023E0DC
:10146000184B5B6803F47010164B5B6803F4803212
:10147000022303EB904022B9154B4343134C2360E6
:101480000DE0104B5B6803F4003323B1104B434372
:101490000E4C236003E00C4B43430C4C236003E0F1
:1014A000094B0A4C236000BF00BF064B5B68C3F3C7
:1014B0000313084CE15C054B1B68CB40034C2360D5
:1014C00010BD00000010024000127A005C000020F5
:1014D00000093D006000002010B51348006840F08E
:1014E00001001149086008464068104908400E494B
:1014F0004860084600680E4908400B4908600846E5
:10150000006820F4802008600846406820F4FE004F
:1015100048604FF41F008860FFF732FE4FF0006014
:101520000449086010BD0000001002400000FFF8F0
:10153000FFFFF6FE08ED00E001467B4A11807B4884
:101540000088002856D079480088102852DA774859
:101550000088774A12889042F4D0754800880322A8
:1015600090FBF2F302FB130000285BD17048008867
:10157000092814D16E4800886C4A1288801A6D4A76
:10158000108010460088C0106B4A1080694800889F
:101590004FF6FF7202EAC000684A108013E0644808
:1015A0000088624A1288801A624A108010460088B9
:1015B0004FF6FF7202EA40005F4A10805D480088E3
:1015C00040105E4A10805C480088584A1288801A91
:1015D000594A108059480088544A1288801A574A3C
:1015E00010805548008860B94F48008818B900201D
:1015F0004D4A108090E04C480088401E4A4A1080B6
:101600008AE04E4800880028F4D1474800886428C2
:1016100002D1454A10807FE043480088401C424A7E
:10162000108079E04148008809280DD140480088A1
:10163000C010404A10803E4800884FF6FF7202EA10
:10164000C0003F4A10800CE0394800884FF6FF7216
:1016500002EA4000374A1080354800884010384A76
:10166000108032480088334A1288801A324A10802B
:101670002E480088324A1288801A304A10802E483C
:10168000008860B92848008818B90020264A1080D0
:1016900042E025480088401E234A10803CE027484D
:1016A000008860B920480088642802D11E4A108052
:1016B00032E01D480088401C1B4A10802CE01E4868
:1016C00000881B4A1288801A1B4A10801B48008819
:1016D000174A1288801A194A10801748008860B982
:1016E0001148008818B900200F4A108014E00E48F5
:1016F0000088401E0C4A10800EE01048008858B93F
:1017000009480088642802D1074A108004E006488E
:101710000088401C044A108004480088044A108055
:1017200001480078704700003800002000000020C9
:10173000420000203A0000203E000020400000202F
:101740003C00002000B585B001214805FFF78EFC64
:10175000164801900020ADF808004BF6FF70ADF878
:101760000A000020ADF80C00ADF80E004FF48040E8
:10177000ADF8100001A90E48FFF764FA01210C48EA
:10178000FFF71FFA01210820FFF780FCC020ADF809
:1017900000001C208DF8030002208DF8020069462D
:1017A0000448FFF7EBF805B000BD0000A08601007B
:1017B00000540040000C014010B5012000F0CAF9AF
:1017C00010BD10B5062000F0C5F910BD10B500F031
:1017D00031F910BD70B504460D462DB9E1B241F0A6
:1017E000800000F0B7F906E004F14001C9B241F011
:1017F000800000F0AFF970BD10B50446FEF794FF0D
:1018000001210820FFF742FC01210820FFF73EFCE0
:1018100040F20340274908801020C87002208870D9
:101820002548FFF7ABF84FF4F0402249088010201C
:10183000C870022088702048FFF7A0F84FF47A5053
:10184000FEF7B0FF4FF400501B4910310860400014
:10185000086000F0E1F841F28830FEF7A3FF00F0E5
:10186000DBF84020FEF79EFF00F0D6F84020FEF7A0
:1018700099FF4FF400501049103108604000091DD5
:10188000086000F0C9F84020FEF78CFF282000F027
:1018900061F9082000F05EF9FFF78EFFFFF791FF76
:1018A000064804700146097841F0080000F052F93A
:1018B00010BD000016000020000C014014000020A4
:1018C00070B50546402D01DA402400E0002444F0C4
:1018D000800000F03FF970BD70B50546FFF776FF58
:1018E00004460A2D03D12046FFF7EAFF0FE0102C33
:1018F00004D10021C02000F0ADF805E0502C03D148
:101900000021802000F0A6F8284600F02CF970BDD8
:1019100010B5044603E014F8010BFFF7DDFF207853
:101920000028F8D110BD000070B505460024022043
:101930003749086015B14002086004E04FF4806048
:101940003349091D08604FF4F040324908804820AF
:10195000C870022088702E481038FFF70FF8012059
:101960002B4908600220FEF71DFF2948083800684F
:1019700000F4804008B144F010042548083800689D
:1019800000F4005008B144F02004214808380068F1
:1019900000F4805008B144F040041D480838006845
:1019A00000F4006008B144F0800401201849091DCA
:1019B00008600220FEF7F6FE0120154908600220AB
:1019C000FEF7F0FE12480838006800F4804008B1C5
:1019D00044F001040E480838006800F4005008B1D3
:1019E00044F002040A480838006800F4805008B146
:1019F00044F0040406480838006800F4006008B1A8
:101A000044F0080401200249091D0860204670BD09
:101A1000100C01401600002010B501200449086098
:101A20000220FEF7BFFE01200149091D086010BD1C
:101A3000100C014010B500BF0020FFF775FF00F04B
:101A400080000028F8D10420FEF7ACFE0020FFF74C
:101A50006BFF10BD70B504460D4602203B4908607F
:101A60001DB14002091F086003E04FF48060374950
:101A700008604FF4F040364908801020C8700220FA
:101A8000887032481438FEF779FF4FF400602F4910
:101A9000086040000860400008604000086004F0F2
:101AA000800010B1C814091F086004F0400020B184
:101AB0004FF480502549091F086004F0200020B130
:101AC0004FF400502149091F086004F0100020B1B4
:101AD0004FF480401D49091F0860FFF79DFF4FF438
:101AE00000601A490860400008604000086040003B
:101AF000086004F0080010B1C814091F086004F061
:101B0000040020B14FF480501049091F086004F010
:101B1000020020B14FF400500C49091F086004F086
:101B2000010020B14FF480400849091F0860FFF709
:101B300073FF4FF400600549091F0860400008600A
:101B4000400008604000086070BD0000140C0140B7
:101B50001600002010B50446FFF76CFF0021204658
:101B6000FFF778FF10BD10B50446FFF763FF0121B2
:101B70002046FFF76FFF10BD1CB5FEF7D5FD102204
:101B8000D1029848FEF778FD102211019648FEF721
:101B900073FD102251019348FEF76EFD1022510291
:101BA0009248FEF769FD102201218F48FEF764FD7F
:101BB000102202218C48FEF75FFD0420FFF71CFE77
:101BC00000210846FFF706FE89A0FFF7A1FE0024CA
:101BD0003EE04FF4005085490861C820FEF7D6FD6D
:101BE0004FF400707F4910310860C820FEF7CEFD29
:101BF0004FF400407B4910310860C820FEF7C6FD55
:101C00004FF48070784910310860C820FEF7BEFD9F
:101C10004FF4005075494861C820FEF7B7FD4FF4F6
:101C20000070704914310860C820FEF7AFFD4FF412
:101C300000406C4914310860C820FEF7A7FD4FF43E
:101C40008070694914310860C820FEF79FFD641C4C
:101C5000012CBEDB00210846FFF7BCFD68A0FFF7A2
:101C600057FE4FF47A70FEF791FDFFF7A5FD00F0E7
:101C7000F3F8FEF7C1FD66A00068019001A90320FA
:101C8000FFF79EF8ADE06348008800906248038843
:101C90006248028862A16B48FEF7F4FA0021084608
:101CA000FFF798FD6748FFF733FE6420FEF76EFDEF
:101CB0006548008801280ED1C820FEF767FD6248FC
:101CC0000088012807D147480C30006880F40040A4
:101CD00044490C3108605C48008802280ED1C820B5
:101CE000FEF754FD58480088022807D13E480C30C2
:101CF000006880F480703C490C31086052480088CC
:101D000004280CD1C820FEF741FD4F480088042864
:101D100005D13648C06880F400503449C8604A484C
:101D2000008808280ED1C820FEF730FD46480088FC
:101D3000082807D12B480C30006880F4007029492E
:101D40000C310860404800880C280ED1C820FEF7EE
:101D50001DFD3D4800880C2807D123480C30006841
:101D600080F0020020490C310860374800880328C1
:101D70000ED1C820FEF70AFD33480088032807D19A
:101D800019480C30006880F0010017490C310860D8
:101D90002E480078012824D12B480088002809DB30
:101DA0002B480088FEF776FE1B490880084600880D
:101DB0002749088026480088FFF756FA1649088008
:101DC00024480088FFF7B8FB1249088012480088B1
:101DD0001F4908800F4800881E49088000201B49C1
:101DE000087050E7000C014000080140001001405D
:101DF000506C6561736520576169742E2E2E00004A
:101E0000202A2A2A486920486F452A2A2A200000C9
:101E1000010408000A000020060000200000002045
:101E200054533D2564202020202020202020200AFB
:101E3000766F6C3A2564202C4C693D256420202067
:101E40000000000070000020020000200C000020B4
:101E5000040000200800002038B500200090012573
:101E6000FFF770FC6321802000F066F969465D2071
:101E700000F0E2F8BDF80000242800D000256946F3
:101E8000012000F0D9F8BDF8000000F0800000B19A
:101E90000025012D7ED100215E2000F04DF9882122
:101EA0001E2000F049F988211F2000F045F9882103
:101EB000202000F041F98821212000F03DF98821FF
:101EC000222000F039F98821232000F035F98821FB
:101ED000242000F031F98821252000F02DF98821F7
:101EE000262000F029F9A521272000F025F9A521B9
:101EF000282000F021F9A521292000F01DF9B921A1
:101F00002A2000F019F901212B2000F015F90121F8
:101F10002C2000F011F900212D2000F00DF90021F6
:101F20002E2000F009F901212F2000F005F90121F0
:101F3000302000F001F9FF21312000F0FDF8FF21F1
:101F4000322000F0F9F80121332000F0F5F81021DB
:101F5000342000F0F1F80221352000F0EDF80F21D7
:101F6000362000F0E9F80F21372000F0E5F80021D5
:101F7000382000F0E1F80021392000F0DDF80121DF
:101F80003A2000F0D9F801213B2000F0D5F8FF21DC
:101F90003C2000E04DE000F0CFF8FF213D2000F0B4
:101FA000CBF800213E2000F0C7F800213F2000F0D0
:101FB000C3F80021402000F0BFF800215B2000F0B2
:101FC000BBF810215C2000F0B7F804215D2000F080
:101FD000B3F80B217B2000F0AFF800217C2000F04B
:101FE000ABF8CA217D2000F0A7F883217E2000F005
:101FF000A3F8B6217F2000F09FF84C215E2000F06E
:102000009BF800240FE0412101EB4401C8B20A21F2
:1020100000F092F8422101EB4401C8B2FF2100F028
:102020008BF8601CC4B20D2CEDDB4C215E2000F05F
:1020300083F8284638BD000070B504460D460126D9
:1020400000BF4FF400313848FEF7DFFD0028F8D11B
:1020500001213548FEF7C1FD00BF34493248FEF783
:102060009BFD0028F9D00022B4212F48FEF764FE22
:1020700000BF2F492C48FEF78FFD0028F9D02A48D1
:102080001830008800F0010000284AD02648183097
:10209000008800F00200002843D021462248FEF7C5
:1020A00054FE00BF2249891C1F48FEF775FD002819
:1020B000F8D001211C48FEF790FD00BF1B491A48CB
:1020C000FEF76AFD0028F9D00122B4211648FEF778
:1020D00033FE00BF1549491C1348FEF75DFD00287B
:1020E000F8D011481830008800F00200B8B100BFE5
:1020F0000E493F310C48FEF74FFD0028F8D00A4842
:10210000FEF716FE288001210748FEF772FD00BF8A
:1021100008490548FEF779FD0028F9D102E00026BC
:1021200000E00026304670BD00540040010003006E
:10213000820007001000001070B504460D4601260D
:1021400000BF4FF400312748FEF75FFD0028F8D1AB
:1021500001212448FEF741FD00BF23492148FEF735
:102160001BFD0028F9D00022B4211E48FEF7E4FD33
:1021700000BF1E491B48FEF70FFD0028F9D0194883
:102180001830008800F0010048B316481830008865
:1021900000F0020018B321461248FEF7D6FD00BF3A
:1021A0001249891C0F48FEF7F7FC0028F8D0E9B265
:1021B0000C48FEF7CAFD00BF0C49891C0948FEF710
:1021C000EBFC0028F8D001210648FEF712FD00BF05
:1021D00007490448FEF719FD0028F9D100E0002660
:1021E000304670BD0054004001000300820007002B
:1021F00010000010142200080000002070000000F1
:10220000280100088422000870000020A0060000B9
:102210004401000800000000320032001E001E00D1
:1022200000000000000000000000000000000000AE
:10223000000000000000000000000000000000009E
:102240000000000000000000000000000A00000084
:10225000000000000000000000000000000001027B
:10226000030401020304060708090204060800002B
:1022700000A24A0400000000000000000102030464
:04228000060708093C
:04000005080000ED02
:00000001FF
