:020000040800F2
:10000000B008002091010008990100089B01000838
:100010009D0100089F010008A101000800000000E8
:10002000000000000000000000000000A301000824
:10003000A501000800000000A7010008A1160008A3
:10004000AB010008AB010008AB010008AB010008E0
:10005000AB010008AB010008AB010008AB010008D0
:10006000AB010008AB010008AB010008AB010008C0
:10007000AB010008AB010008AB010008AB010008B0
:10008000AB010008AB010008AB010008AB010008A0
:10009000AB010008AB010008AB010008990600089D
:1000A000AB010008AB010008AB010008AB01000880
:1000B000AB010008AB010008AB010008AB01000870
:1000C000AB010008AB010008AB010008AB01000860
:1000D000AB010008AB0100088D180008AB01000857
:1000E000AB010008AB010008AB01000800F002F80A
:1000F00000F03FF80AA090E8000C82448344AAF183
:100100000107DA4501D100F034F8AFF2090EBAE880
:100110000F0013F0010F18BFFB1A43F0010318473B
:10012000F426000014270000103A24BF78C878C1D4
:10013000FAD8520724BF30C830C144BF04680C60ED
:10014000704700000023002400250026103A28BF35
:1001500078C1FBD8520728BF30C148BF0B60704739
:10016000642900F04980002070471FB51FBD10B5FD
:1001700010BD00F098F91146FFF7F7FF02F05CF8A8
:1001800000F0B6F903B4FFF7F2FF03BC00F0BAF9D0
:100190000948804709480047FEE7FEE7FEE7FEE71B
:1001A000FEE7FEE7FEE7FEE7FEE7FEE70448054957
:1001B000054A064B704700005D170008ED00000877
:1001C000B0020020B0080020B0040020B0040020DD
:1001D0000FB41CB5074B06AA7B44694600900598EE
:1001E00000F043F90020694600F052F91CBC5DF8AC
:1001F00014FB0000B50200002DE9F0410646002482
:1002000010687529314616A510D0AFF3008000287C
:1002100002DA404213A507E031688A0701D512A52A
:1002200002E0490704D511A5012401E0AFF30080E5
:1002300000210A2206F1240709E0B0FBF2FCB0FB22
:10024000F2F302FB1C00303078541846491C002899
:10025000F3D123462A463046BDE8F04100F0A7B866
:10026000000000002D0000002B0000002000000016
:100270002DE9F05F894604464FF0000ADFF824B10B
:10028000FB44C0F820A02046E168884700287DD0C4
:10029000252806D0D4E901219047206A401C20621D
:1002A000F1E700255F462046E1688847202806469A
:1002B00007DB312E05D2B81910F8200C08B1054320
:1002C000F1E7A80701D525F00405C4F81CA0002714
:1002D000C4F818A02A2E09D0304601F08BFD38B39F
:1002E00004EB8708303EC8F8186019E059F8041B81
:1002F000204604EB87029161E1688847012F06469A
:1003000018D1E069002820DA25F020051DE0D8F892
:10031000180000EB800006EB40003038C8F81800E9
:100320002046E1688847064601F064FD0028EED1CA
:10033000012F0AD02E2E08D12046E16888477F1C65
:100340000646022F45F02005C4DBA069002803DA29
:10035000404245F00105A061E80701D025F01005F5
:10036000A6B1A6F14100192802D8203645F400654F
:100370004A463146204625604D46FFF7F1FE60B102
:10038000012807D0ED1D25F0070000E007E000F18F
:10039000080978E705F1040975E730467AE7206A2D
:1003A000BDE8F09F7C2500007047704770472DE93D
:1003B000F0470D4699469246044600F1240801682C
:1003C000880604D5E06921F01001216000E00120D9
:1003D000A84201DD471B00E00027A1697A1902EB62
:1003E0000900081AA0612078C00602D42046AFF3A5
:1003F0000080002608E0D4E901211AF806009047A1
:10040000206A401C761C20624E45F4DB2078C00632
:100410000AD52046AFF3008006E0D4E90121302060
:100420009047206A401C2062381EA7F10107F4DCC7
:1004300007E0D4E9012118F805009047206A401C24
:100440002062281EA5F10105F3DC2046AFF30080F1
:100450002078000602D50220BDE8F0870120FBE7E6
:1004600001694A1C02610878704700B58FB0CDE978
:1004700001310021059105497944CDE90310114668
:100480006846FFF7F5FE0FB000BD0000E5FFFFFF77
:100490000A6802F8010B0A607047000000487047C4
:1004A0005002002070477546FFF7F8FFAE46050082
:1004B0006946534620F00700854618B020B5FFF77F
:1004C00075FEBDE820404FF000064FF000074FF0EA
:1004D00000084FF0000B21F00701AC46ACE8C00962
:1004E000ACE8C009ACE8C009ACE8C0098D4670476B
:1004F00010B50446AFF300802046BDE81040FFF77A
:1005000041BE000001491820ABBEFEE726000200F4
:1005100010B5012000F072FB002000F06FFB10BD51
:1005200008B5014600200090034800900098084458
:1005300000900098008808BD006C004008B50022BB
:100540000092044A0092009A02440092009A1160BC
:1005500008BD0000006C0040F8B504460D46164684
:100560002248844204D10121042000F037FB2EE010
:100570001F48844204D10121082000F02FFB26E00F
:100580001C48844204D10121102000F027FB1EE00A
:100590001948844204D10121202000F01FFB16E0FD
:1005A0001648844204D10121402000F017FB0EE0E0
:1005B0001348844204D10121802000F00FFB06E0A3
:1005C0001048844203D10121801500F007FBA8B236
:1005D000ADF8000002208DF80200F0B28DF80300A3
:1005E0006946204600F03AF9F8BD000000080140D5
:1005F000000C0140001001400014014000180140AF
:10060000001C01400020014070B501F055F813486E
:100610000068134AB0FBF2F1481EB0F1807F00D3AE
:100620001BE0481E4FF0E022506150170F220028B7
:1006300004DB13071C0E0B4B1C5406E013071D0EA6
:10064000094B00F00F04241F1D5500BF00204FF080
:10065000E02290610720106100BF70BD9C00002067
:1006600040420F0000E400E018ED00E000B5024653
:1006700003E04FF47A7000F005F8101EA2F10102B9
:10068000F7D100BD0349086000BF0249096800298D
:10069000FBD170471400002010B54FF4807000F0BB
:1006A0005FF888B10949002001F0BCFF084901202A
:1006B00001F0B8FF012007490870000200F044F87B
:1006C0004FF4807000F046F810BD000000000020DC
:1006D000020000200C00002010B50121082000F0CD
:1006E0007DFA4FF48070144908800420C8701348C4
:1006F00000F0B4F80121084600F070FA082101204A
:1007000000F08CF84FF480700D49086000200871EB
:100710000C20487101208871084600F035F8172038
:10072000084908700F20487088700120C87008467A
:1007300000F0FCF910BD000028000020000C014072
:10074000200000202C0000200149086070470000B4
:10075000140401400149086070470000140401407E
:10076000014600200022074B1B6803EA0102054BEB
:1007700014331B680B4013B10AB1012000E00020C4
:100780007047000000040140002123498279002ABB
:100790003AD00A46126803689A430B461A600A1D4B
:1007A000126803689A430B1D1A60027911440A68A3
:1007B00003681A430A60184A0832126803689A43A9
:1007C000154B08331A601A1D126803689A43124BBE
:1007D0000C331A604279102A0ED11A1F126803686E
:1007E0001A430D4B08331A601A1D126803681A4326
:1007F000094B0C331A600DE00749427911440A682D
:1008000003681A430A6005E0027911440A68036824
:100810009A430A60704700000004014030B500228E
:100820008B071C0F0F2303FA04F20B4B8C1053F8A9
:1008300024309343084C8D1044F8253023468C1007
:1008400053F824308C07240F00FA04F42343024C9D
:100850008D1044F8253030BD080001402DE9F041ED
:10086000024600250026002000230024002791F8DE
:1008700003C00CF00F0591F803C00CF0100CBCF194
:10088000000F03D091F802C04CEA050591F800C0B2
:10089000BCF1000F31D0146800202BE04FF0010CA8
:1008A0000CFA00F3B1F800C00CEA03069E4220D116
:1008B00083004FF00F0C0CFA03F7BC4305FA03FC5E
:1008C0004CEA040491F803C0BCF1280F06D14FF0A4
:1008D000010C0CFA00FCC2F814C00AE091F803C045
:1008E000BCF1480F05D14FF0010C0CFA00FCC2F826
:1008F00010C0401C0828D1D31460B1F800C0BCF16E
:10090000FF0F34DD546800202EE000F1080C4FF09A
:10091000010808FA0CF3B1F800C00CEA03069E4285
:1009200021D183004FF00F0C0CFA03F7BC4305FAFA
:1009300003FC4CEA040491F803C0BCF1280F05D174
:1009400000F1080C08FA0CF8C2F8148091F803C002
:10095000BCF1480F07D100F1080C4FF0010808FA6C
:100960000CF8C2F81080401C0828CED35460BDE8B3
:10097000F08170B502460024002500230020958AEE
:10098000138B1B0445EA030626F07F4404EA0106A4
:100990008E4201D1012000E0002070BD21B102880B
:1009A00042F00102028004E002884FF6FE731A4012
:1009B0000280704721B1028842F48072028004E014
:1009C00002884FF6FF631A400280704721B1028807
:1009D00042F40072028004E002884FF6FF531A408E
:1009E000028070470CB5024600200023019300935B
:1009F00000920B0F019321F07F41019B1BB1009BE3
:100A00001433009303E0090C009B18330093009B00
:100A10001B680B400BB1012000E000200CBD000062
:100A20002DE9F04385B004460D460026B146042763
:100A3000DFF8CC80A6884FF6C0700640684600F00C
:100A4000EDF8DDF808802F48B8FBF0F01FFA80F9C8
:100A500046EA0906A68020884FF6FE7108402080ED
:100A600000262949286888420CD828684000B8FB2D
:100A7000F0F087B2042F00DA04273E4309F10100A9
:100A8000208427E0E8884BF6FF71884206D1286869
:100A900000EB4000B8FBF0F087B209E0286800EBFB
:100AA000C00101EB0010B8FBF0F087B247F48047BB
:100AB000C7F30B0008B947F0010747F400400643AD
:100AC0004FF4967009FB00F04FF47A7190FBF1F04F
:100AD000401C2084A683208840F0010020802688C6
:100AE0004FF6F5300640A8886989084306432680FA
:100AF000A88929890843208105B0BDE8F08300005A
:100B000000127A0040420F00A08601000146088AC8
:100B1000C0B2704712B141F0010102E04FF6FE731E
:100B200019400182704701827047000070B50021B2
:100B300000230F22C47804B3154C246804F4E06445
:100B4000C4F5E064210AC1F10403CA40447804FA00
:100B500003F184781440214309010E4C0678A15515
:100B6000047804F01F050124AC4005786D11AD0038
:100B700005F1E025C5F8004109E0047804F01F05FF
:100B80000124AC40044D0678761145F8264070BD2E
:100B90000CED00E000E400E080E100E002490143E8
:100BA000024A1160704700000000FA050CED00E0F9
:100BB000014908627047000000000E4229B1064A50
:100BC000D2690243044BDA6104E0034AD2698243EA
:100BD000014BDA61704700000010024029B1064A5B
:100BE00092690243044B9A6104E0034A926982438A
:100BF000014B9A61704700000010024001490860F3
:100C000070470000400442420348406A40F0807050
:100C100001494862704700000010024030B50021D1
:100C20000022002400232D4D6D6805F00C0121B138
:100C3000042905D0082923D105E0294D056022E0CB
:100C4000274D05601FE0254D6D6805F47012234D9A
:100C50006D6805F48034022505EB92421CB9214DE4
:100C6000554305600BE01D4D6D6805F400351DB161
:100C70001C4D5543056002E0194D5543056002E0E7
:100C8000174D056000BF00BF144D6D6805F0F00101
:100C90000909154D6B5C0568DD4045600F4D6D68B9
:100CA00005F4E061090A104D6B5C4568DD40856024
:100CB0000A4D6D6805F46051C90A0B4D6B5C4568BF
:100CC000DD40C560054D6D6805F44041890B074D59
:100CD0006B5CC568B5FBF3F5056130BD00100240E3
:100CE00000127A0000093D008600002096000020D6
:100CF00010B501460022002300204A11012A02D12A
:100D0000094C236806E0022A02D1074C236A01E05D
:100D1000054C636A01F01F02012494401C400CB191
:100D2000012000E0002010BD0010024000210B4A0D
:100D300011700A4A203A82F82010012802D00428B3
:100D400008D103E00121054A117004E00521034A9E
:100D5000117000E000BF00BF70470000201002408B
:100D600001490860704700003C0442420249096A98
:100D70000143014A116270470010024010B5012181
:100D80004FF0C050FFF71AFF0120FFF711FFFFF7E8
:100D9000BFFB0120FFF7CAFF00BF4120FFF7A8FFFC
:100DA0000028FAD04FF48070FFF7E0FF0120FFF732
:100DB000D7FF00F065F800F059F80121022000F09B
:100DC00027F800F053F847F6FF7000F03FF800F006
:100DD0004DF810BD0348008840F01000014908801C
:100DE0007047000004280040034800884FF6EF7168
:100DF000084001490880704704280040002103484A
:100E00000188001F008841EA004070471C2800400C
:100E100029B1064A12880243044B1A8004E0034AAF
:100E200012888243014B1A8070470000002800405E
:100E300000B50246FFF7CEFF100C03490880091DDC
:100E40000A80FFF7D1FF00BD1828004000B5024618
:100E5000FFF7C0FFC2F3034003490880091D0A8061
:100E6000FFF7C2FF00BD00000828004000BF034894
:100E7000008800F020000028F9D0704704280040C6
:100E8000074800884FF6F77108400549088000BF01
:100E90000348008800F008000028F9D070470000DF
:100EA0000428004010B50820FFF73AFB4AF2A5518C
:100EB00088422ED039A13E48FFF78AF900F0DCFFC6
:100EC0000021084600F0E6FF394801F081F8FFF7FD
:100ED00055FF4FF4FA70FFF7C9FB36A13448FFF70E
:100EE00077F900F0C9FF0021084600F0D3FF304831
:100EF00001F06EF84FF4FA70FFF7B8FB00222E21D4
:100F00000C2000F05BFC4AF2A5510820FFF716FB0D
:100F10003FE07B20FFF7ECFE68B12BA12448FFF7F0
:100F200057F900F0A9FF0021084600F0B3FF204860
:100F300001F04EF814E07A20FFF7DAFE80B129A123
:100F40001B48FFF745F900F097FF0021084600F025
:100F5000A1FF174801F03CF84FF4FA70FFF786FB49
:100F600027A11348FFF734F900F086FF0021084657
:100F700000F090FF0E4801F02BF84FF4FA70FFF7E5
:100F800075FBFFF77DFF01210846FFF741FFFFF7E3
:100F90006DFFFFF739FE00F06FFF10BD5254432084
:100FA0006E6F742079657420636F6E6669670000E8
:100FB0001002002052544320636F6E666967757299
:100FC00065642E2E2E2E0000506F776572204F6EB6
:100FD000205265736574206F636375727265642E49
:100FE0002E2E2E0045787465726E616C20526573EA
:100FF0006574206F636375727265642E2E2E2E00E9
:101000004E6F206E65656420746F20636F6E666935
:1010100067757265205254432E2E2E2E000000005C
:1010200010B500F001F810BD0CB500200190009043
:101030003348006840F480303149086000BF3048D0
:10104000006800F4003000900198401C0190009866
:1010500018B90198B0F5A06FF1D12948006800F4E3
:10106000003010B10120009001E0002000900098B5
:10107000012843D12348006840F01000214908604E
:101080000846006820F0030008600846006840F049
:10109000020008601A4840681949486008464068DC
:1010A00048600846406840F48060486008464068F0
:1010B00020F47C1048600846406840F4E81048601E
:1010C0000846006840F08070086000BF0C48006867
:1010D00000F000700028F9D00948406820F00300B3
:1010E000074948600846406840F00200486000BF79
:1010F0000348406800F00C000828F9D10CBD00003E
:1011000000100240002002400146654A1170654807
:10111000008800283DD0634800880F2839DD6148E9
:101120000088614A12889042F4D05F480088032208
:1011300090FBF2F302FB1300002842D15A480088CA
:10114000584A1288801A594A1080104600884FF673
:10115000FF7202EA4000564A10805448008840104E
:10116000544A1080524800884E4A1288801A504AC9
:101170001080504800884B4A1288801A4D4A1080CF
:101180004B48008860B94648007818B90020444AA6
:1011900010707EE042480078401C414A107078E0B0
:1011A00044480088002874D13D480078642802D162
:1011B0003B4A10706DE03A480078401E384A107083
:1011C00067E0394800884FF6FF7202EA4000374A6C
:1011D0001080354800884010374A10803148008818
:1011E000324A1288801A324A10802E480088324AC9
:1011F0001288801A2F4A10802D48008860B928482C
:10120000007818B90020264A107042E0244800787F
:10121000401C234A10703CE02648008860B92048F2
:101220000078642802D11E4A107032E01C48007811
:10123000401E1B4A10702CE01D4800881A4A128874
:10124000801A1B4A10801B480088174A1288801A8F
:10125000184A10801648008860B91148007818B9FB
:1012600000200F4A107014E00D480078401C0C4A12
:1012700010700EE00F48008858B9094800786428BB
:1012800002D1074A107004E005480078401E044A65
:10129000107004480088044A1080014800787047A4
:1012A0003C00002000000020480000203E000020FC
:1012B00042000020440000204000002010B508201B
:1012C00001F030FA012806D1CE4908700020CE493D
:1012D000087000F0D1FD8FE136E0CCA1CF48FEF7D9
:1012E00077FF0021084600F0D5FDCC4800F070FEE5
:1012F000CB48008800F064FCCA4908800846008892
:10130000C7490880C7480088022803D1BD49087032
:1013100000F0B2FD082001F005FA012807D10020F5
:10132000B84908700120B849087000F0A5FD0120F7
:1013300001F0F8F9012807D100F09EFD0020B14925
:1013400008700120B8490870AE4800780128C4D060
:1013500022E0B6480288B6A1B048FEF739FF002166
:10136000084600F097FDAD4800F032FEB448008812
:10137000FFF7CAFEAD49088008460088B0490880DA
:10138000012001F0CFF9012806D19E490870002004
:10139000A549087000F070FDA34800780128D8D056
:1013A00040E0A8A19D48FEF713FF0021084600F089
:1013B00071FD9A4800F00CFE9948008800F000FC8E
:1013C0009849088008460088954908809548008813
:1013D00028B901208B49087000F04EFD08E09148C3
:1013E0000088042804D103208649087000F044FDD9
:1013F000082001F097F9012807D1002081490870E1
:1014000001208149087000F037FD012001F08AF9C0
:10141000012807D100207B4908700220824908700A
:1014200000F02AFD774800780228BAD023E08948E6
:10143000028889A17948FEF7CBFE0021084600F01A
:1014400029FD764800F0C4FD87480088FFF75CFE60
:10145000804908800846008883490880012001F0FF
:1014600061F9012807D102206649087000206E4901
:10147000087000F001FD6C4800780228D7D036E0F3
:101480007AA16648FEF7A4FE0021084600F002FD9E
:10149000624800F09DFD6248008800F091FB6149C0
:1014A0000880084600885E4908805E480088022857
:1014B00003D15449087000F0DFFC082001F032F934
:1014C000012807D100204F49087001204E490870BB
:1014D00000F0D2FC012001F025F9012807D10020FD
:1014E0004849087003205049087000F0C5FC454881
:1014F00000780328C4D03BE061A14848FEF768FEAD
:101500000021084600F0C6FC444800F061FD0021BF
:10151000072000F0BFFC5C4800F05AFD52480088EC
:10152000FFF7F2FD4B490880084600884E490880C5
:101530005648008800F044FB55490880084600885A
:101540005249088052480088022804D104203649B4
:10155000087000F091FC082001F0E4F8012807D1A0
:1015600003202849087000202F49087000F084FCEF
:101570002D4800780328BFD03AE046A12748FEF75F
:1015800027FE0021084600F085FC244800F020FDDD
:101590000021052000F07EFC404800F019FD324893
:1015A0000088FFF7B1FD2B490880084600882E49C6
:1015B00008803648008800F003FB3549088008465B
:1015C0000088324908803248008820B90320164933
:1015D000087000F051FC082001F0A4F8012807D1A0
:1015E00003200849087000200F49087000F044FCEF
:1015F0000D4800780428C0D00348007800283FF444
:101600006BAE10BD7A0000207C0000204D656E7529
:101610000A312D566F6C756D65000000F0010020D9
:101620007E000020800000207B00002006000020BB
:1016300020202020566F6C756D653A2564202000AF
:10164000040000204D656E750A322D4C6967687480
:10165000000000000A000020202020204C6967685C
:10166000743A256420200000080000204D656E7546
:101670000A332D576966692053657474696E670073
:10168000312D4E616D653A005A0000208200002025
:1016900084000020322D49503A0000004A0000200A
:1016A0000448006820B103480068401E01490860F2
:1016B000704700001400002010B500210020002217
:1016C000214B5B6803F00C0121B1042906D00829E5
:1016D00028D107E01D4B1E4C236027E01B4B1C4C00
:1016E000236023E0184B5B6803F47010164B5B68B3
:1016F00003F48032022303EB904022B9154B43439D
:10170000134C23600DE0104B5B6803F4003323B1EE
:10171000104B43430E4C236003E00C4B43430C4CF3
:10172000236003E0094B0A4C236000BF00BF064B57
:101730005B68C3F30313084CE15C054B1B68CB40AB
:10174000034C236010BD00000010024000127A001C
:101750009C00002000093D00A000002010B51348A7
:10176000006840F0010011490860084640681049CF
:1017700008400E494860084600680E4908400B4979
:1017800008600846006820F4802008600846406829
:1017900020F4FE0048604FF41F008860FFF740FC13
:1017A0004FF000600449086010BD000000100240C6
:1017B0000000FFF8FFFFF6FE08ED00E02DE9F04124
:1017C00004460D461646FFF751FB4FF46160604337
:1017D000C5EB051100EB810087193846FFF728FBA0
:1017E000FFF744FBBDE8F081F8B50446002500266C
:1017F0000027FFF703FB1649884204D10020FFF7BA
:1018000017FBFFF733FB4FF46160B4FBF0F5B4FB5B
:10181000F0F100FB11403C21B0FBF1F64FF46160A8
:10182000B4FBF0F100FB11403C21B0FBF1F201FBF5
:10183000120733462A4607A10C480097FEF7C8FC5A
:101840000021084600F026FB084800F0C1FBF8BD67
:101850007F51010054696D653A25302E32643A2576
:10186000302E32643A25302E3264000010020020FF
:1018700010B500BF2021044800F0CFF80028F9D0AF
:10188000014800F093F910BD0044004010B540F24B
:1018900025510F4800F0CEF8C8B1FFF7E9FF0D4918
:1018A00008700846007821280ED000200A490870E8
:1018B0000848007809490A4A1268885408480068AC
:1018C000401C0749086002E001200349087010BD70
:1018D000004400400D0000200E000020D000002039
:1018E0001000002070B586B004460E461546012152
:1018F0004804FFF763F902940020ADF814000C20AF
:10190000ADF812000020ADF81000ADF80E00ADF8F3
:101910000C0002A9234800F0DDF80121214800F065
:1019200070F801210520FFF759F90420ADF80400F3
:1019300018208DF8070002208DF8060001A91A482A
:10194000FEF78CFF0820ADF8040004208DF8070096
:1019500002208DF8060001A91348FEF77FFF012D34
:1019600019D14FF4E060FFF719F90021481E00F08B
:101970002DFA26208DF8000000208DF802000120AD
:101980008DF803006846FFF7D1F80122314605487B
:1019900000F07AF804E000223146024800F074F8C2
:1019A00006B070BD004400400008014010B5044678
:1019B00000BF8021044800F030F80028F9D021460B
:1019C000014800F0F8F810BD0044004010B504468E
:1019D00007E014F8010BFFF7E9FF8021034800F04E
:1019E00007F820780028F4D110BD00000044004022
:1019F00001F40072B2F5007F00D100BFCA4302803B
:101A0000704721B1828942F40052828104E08289C8
:101A10004DF6FF731A408281704702460020B1F5EF
:101A2000007F00D100BF13880B400BB1012000E004
:101A30000020704770B502460024002300250020D6
:101A400040F66A16B14200D100BFC1F3421501F061
:101A50001F03012606FA03F3012D02D196893340B4
:101A600006E0022D02D1168A334001E0968A334007
:101A70000C12012606FA04F41688344013B10CB196
:101A8000012000E0002070BDF0B5034600240026D0
:101A90000025002040F66A17B94200D100BF184661
:101AA000C1F3421401F01F06012707FA06F5012CC5
:101AB00001D10C3004E0022C01D1103000E01430D0
:101AC0001AB107682F43076002E00768AF43076059
:101AD000F0BD00002DE9F04786B005460E46002413
:101AE000A24600BFA1460027B08900B100BF2F4623
:101AF0002C8A4CF6FF700440F08804432C82AC8999
:101B00004EF6F3100440B0883189084371890843C8
:101B10000443AC81AC8A4FF6FF400440B0890443D3
:101B2000AC8201A8FFF77AF81F48874202D1DDF89E
:101B300010A001E0DDF80CA0A88900F4004040B13D
:101B40000AEBCA0000EB0A1031684900B0FBF1F85B
:101B500007E00AEBCA0000EB0A1031688900B0FB0D
:101B6000F1F86420B8FBF0F004012009642101FBC6
:101B70001089A88900F4004040B1322000EBC90070
:101B8000B0FBF1F000F00700044308E0322000EB66
:101B900009106421B0FBF1F000F00F0004432C8128
:101BA00006B0BDE8F0870000003801400146888893
:101BB000C0F308007047C1F308028280704700003C
:101BC00001467B4A11707B480088002856D079482E
:101BD0000088102852DA77480088774A12889042A5
:101BE000F4D075480088032290FBF2F302FB130047
:101BF00000285BD170480088092814D16E480088FD
:101C00006C4A1288801A6D4A108010460088C010F5
:101C10006B4A1080694800884FF6FF7202EAC000E4
:101C2000684A108013E064480088624A1288801A6B
:101C3000624A1080104600884FF6FF7202EA4000A8
:101C40005F4A10805D48008840105E4A10805C4802
:101C50000088584A1288801A594A108059480088CA
:101C6000544A1288801A574A10805548008860B933
:101C70004F48007818B900204D4A107090E04C4849
:101C80000078401E4A4A10708AE04E4800880028BA
:101C9000F4D147480078642802D1454A10707FE0AB
:101CA00043480078401C424A107079E0414800885F
:101CB00009280DD140480088C010404A10803E4895
:101CC00000884FF6FF7202EAC0003F4A10800CE025
:101CD000394800884FF6FF7202EA4000374A108008
:101CE000354800884010384A108032480088334A0E
:101CF0001288801A324A10802E480088324A128890
:101D0000801A304A10802E48008860B92848007830
:101D100018B90020264A107042E025480078401E7D
:101D2000234A10703CE02748008860B920480078BA
:101D3000642802D11E4A107032E01D480078401C11
:101D40001B4A10702CE01E4800881B4A1288801A1B
:101D50001B4A10801B480088174A1288801A194AAB
:101D600010801748008860B91148007818B9002021
:101D70000F4A107014E00E480078401E0C4A107094
:101D80000EE01048008858B909480078642802D14C
:101D9000074A107004E006480078401C044A10709E
:101DA00004480088044A1080014800787047000009
:101DB0003C00002000000020460000203E000020E3
:101DC00042000020440000204000002010B5002800
:101DD00004DB0A07130E054A135406E00A07140E23
:101DE000034A00F00F031B1FD45410BD00E400E0B1
:101DF00018ED00E030380A2801D201207047002099
:101E00007047000000B585B001214805FEF7D6FEF9
:101E1000164801900020ADF808004BF6FF70ADF8B1
:101E20000A000020ADF80C00ADF80E004FF4804021
:101E3000ADF8100001A90E48FEF7F2FD01210C4893
:101E4000FEF7ACFD01210820FEF7C8FEC020ADF86A
:101E500000001C208DF8030002208DF80200694666
:101E60000448FEF7FBFC05B000BD0000A0860100A1
:101E700000540040000C014010B5012000F0CAF9E8
:101E800010BD10B5062000F0C5F910BD10B500F06A
:101E900031F910BD70B504460D462DB9E1B241F0DF
:101EA000800000F0B7F906E004F14001C9B241F04A
:101EB000800000F0AFF970BD10B50446FEF7A4FB3A
:101EC00001210820FEF78AFE01210820FEF786FE88
:101ED00040F20340274908801020C8700220887013
:101EE0002548FEF7BBFC4FF4F04022490880102043
:101EF000C870022088702048FEF7B0FC4FF47A507A
:101F0000FEF7C0FB4FF400501B4910310860400041
:101F1000086000F0E1F841F28830FEF7B3FB00F012
:101F2000DBF84020FEF7AEFB00F0D6F84020FEF7CD
:101F3000A9FB4FF400501049103108604000091D02
:101F4000086000F0C9F84020FEF79CFB282000F054
:101F500061F9082000F05EF9FFF78EFFFFF791FFAF
:101F6000064804700146097841F0080000F052F973
:101F700010BD00001A000020000C014018000020D5
:101F800070B50546402D01DA402400E0002444F0FD
:101F9000800000F03FF970BD70B50546FFF776FF91
:101FA00004460A2D03D12046FFF7EAFF0FE0102C6C
:101FB00004D10021C02000F0ADF805E0502C03D181
:101FC0000021802000F0A6F8284600F02CF970BD12
:101FD00010B5044603E014F8010BFFF7DDFF20788D
:101FE0000028F8D110BD000070B50546002402207D
:101FF0003749086015B14002086004E04FF4806082
:102000003349091D08604FF4F040324908804820E8
:10201000C870022088702E481038FEF71FFC01207F
:102020002B4908600220FEF72DFB2948083800687C
:1020300000F4804008B144F01004254808380068D6
:1020400000F4005008B144F020042148083800682A
:1020500000F4805008B144F040041D48083800687E
:1020600000F4006008B144F0800401201849091D03
:1020700008600220FEF706FB0120154908600220D7
:10208000FEF700FB12480838006800F4804008B1F1
:1020900044F001040E480838006800F4005008B10C
:1020A00044F002040A480838006800F4805008B17F
:1020B00044F0040406480838006800F4006008B1E1
:1020C00044F0080401200249091D0860204670BD43
:1020D000100C01401A00002010B5012004490860CE
:1020E0000220FEF7CFFA01200149091D086010BD4A
:1020F000100C014010B500BF0020FFF775FF00F085
:1021000080000028F8D10420FEF7BCFA0020FFF779
:102110006BFF10BD70B504460D4602203B490860B8
:102120001DB14002091F086003E04FF48060374989
:1021300008604FF4F040364908801020C870022033
:10214000887032481438FEF789FB4FF400602F493D
:10215000086040000860400008604000086004F02B
:10216000800010B1C814091F086004F0400020B1BD
:102170004FF480502549091F086004F0200020B169
:102180004FF400502149091F086004F0100020B1ED
:102190004FF480401D49091F0860FFF79DFF4FF471
:1021A00000601A4908604000086040000860400074
:1021B000086004F0080010B1C814091F086004F09A
:1021C000040020B14FF480501049091F086004F04A
:1021D000020020B14FF400500C49091F086004F0C0
:1021E000010020B14FF480400849091F0860FFF743
:1021F00073FF4FF400600549091F08604000086044
:10220000400008604000086070BD0000140C0140F0
:102210001A00002010B50446FFF76CFF002120468D
:10222000FFF778FF10BD10B50446FFF763FF0121EB
:102230002046FFF76FFF10BDFEF7E6F91022D1022E
:102240006F48FEF789F9102211016E48FEF784F9F4
:10225000102251016A48FEF77FF9102251026A48A4
:10226000FEF77AF9102201216648FEF775F910226F
:1022700002216448FEF770F90420FFF71DFE00F00C
:10228000E1F8FEF729FA00210846FFF703FE5FA0F8
:10229000FFF79EFE00243EE04FF400505A490861CB
:1022A000C820FEF7E3F94FF400705549103108607B
:1022B000C820FEF7DBF94FF40040514910310860A7
:1022C000C820FEF7D3F94FF480704E4910310860F2
:1022D000C820FEF7CBF94FF400504B494861C820A5
:1022E000FEF7C4F94FF40070454914310860C82066
:1022F000FEF7BCF94FF40040414914310860C82092
:10230000FEF7B4F94FF480703E4914310860C820DC
:10231000FEF7ACF9641C012CBEDB00210846FFF778
:10232000B9FD3EA0FFF754FE4FF47A70FEF79EF918
:10233000FFF7A2FDFEF7B6FD012240F225514FF452
:10234000E130FFF7CFFA59E0FEF758FD0446FFF7FA
:102350004BFAFEF7B3FF012000F0E4F9012807D1A2
:1023600028480C30006880F4807026490C310860E1
:10237000022000F0D7F9012807D121480C3000686D
:1023800080F400401E490C3108600C2000F0CAF9AE
:10239000012807D11B480C30006880F00200194961
:1023A0000C310860032000F0BDF9012807D1154861
:1023B0000C30006880F0010012490C3108601B48A5
:1023C0000088FEF7A1FE1A490880084600881749D0
:1023D000088018480078012810D1FFF74DFD012131
:1023E0000020FFF757FD1448FFF7F2FD13A0FFF799
:1023F000EDFA0020124908600E490870A4E70000B9
:10240000000C01400008014000100140506C656163
:10241000736520576169742E2E2E0000202A2A2A07
:10242000486920486F452A2A2A200000040000201D
:10243000060000200E000020D00000206F6B00007E
:102440001000002038B5002000900125FFF7DAFCCD
:102450006321802000F076F969465D2000F0E2F803
:10246000BDF80000242800D000256946012000F0B6
:10247000D9F8BDF8000000F0800000B10025012D62
:102480007ED100215E2000F05DF988211E2000F041
:1024900059F988211F2000F055F98821202000F0EB
:1024A00051F98821212000F04DF98821222000F0E7
:1024B00049F98821232000F045F98821242000F0E3
:1024C00041F98821252000F03DF98821262000F0DF
:1024D00039F9A521272000F035F9A521282000F0A1
:1024E00031F9A521292000F02DF9B9212A2000F089
:1024F00029F901212B2000F025F901212C2000F0E1
:1025000021F900212D2000F01DF900212E2000F0DE
:1025100019F901212F2000F015F90121302000F0D8
:1025200011F9FF21312000F00DF9FF21322000F0D8
:1025300009F90121332000F005F91021342000F0C1
:1025400001F90221352000F0FDF80F21362000F0BE
:10255000F9F80F21372000F0F5F80021382000F0BD
:10256000F1F80021392000F0EDF801213A2000F0C7
:10257000E9F801213B2000F0E5F8FF213C2000E0D4
:102580004DE000F0DFF8FF213D2000F0DBF80021F6
:102590003E2000F0D7F800213F2000F0D3F80021C2
:1025A000402000F0CFF800215B2000F0CBF8102194
:1025B0005C2000F0C7F804215D2000F0C3F80B2177
:1025C0007B2000F0BFF800217C2000F0BBF8CA217E
:1025D0007D2000F0B7F883217E2000F0B3F8B6210B
:1025E0007F2000F0AFF84C215E2000F0ABF8002413
:1025F0000FE0412101EB4401C8B20A2100F0A2F82A
:10260000422101EB4401C8B2FF2100F09BF8601C9D
:10261000C4B20D2CEDDB4C215E2000F093F828466F
:1026200038BD000070B504460D46012600BF4FF4CA
:1026300000313848FEF7D6F90028F8D10121354895
:10264000FEF7B8F900BF34493248FEF792F9002886
:10265000F9D00022B4212F48FEF75CFA00BF2F49C1
:102660002C48FEF786F90028F9D02A48183000884F
:1026700000F0010000284AD026481830008800F0F9
:102680000200002843D021462248FEF74CFA00BF42
:102690002249891C1F48FEF76CF90028F8D0012157
:1026A0001C48FEF787F900BF1B491A48FEF761F97D
:1026B0000028F9D00122B4211648FEF72BFA00BFFA
:1026C0001549491C1348FEF754F90028F8D0114861
:1026D0001830008800F00200B8B100BF0E493F3149
:1026E0000C48FEF746F90028F8D00A48FEF70EFA23
:1026F000288001210748FEF769F900BF084905480D
:10270000FEF770F90028F9D102E0002600E000266B
:10271000304670BD005400400100030082000700F5
:1027200010000010014606480088884206D100BF0C
:10273000034800888842FBD0012070470020FCE756
:102740000200002070B504460D46012600BF4FF47C
:1027500000312748FEF746F90028F8D10121244826
:10276000FEF728F900BF23492148FEF702F90028A7
:10277000F9D00022B4211E48FEF7CCF900BF1E4953
:102780001B48FEF7F6F80028F9D0194818300088E1
:1027900000F0010048B316481830008800F002002D
:1027A00018B321461248FEF7BEF900BF1249891C32
:1027B0000F48FEF7DEF80028F8D0E9B20C48FEF723
:1027C000B2F900BF0C49891C0948FEF7D2F800286D
:1027D000F8D001210648FEF7F9F800BF0749044880
:1027E000FEF700F90028F9D100E00026304670BD60
:1027F0000054004001000300820007001000001098
:1028000004000008000000000000000200010000B9
:10281000100000003428000800000020B000000074
:1028200028010008E4280008B0000020000800008B
:102830004401000800000000320032001E001E00AB
:102840000000000000000000000000000000000088
:102850000000000000000000000000000000000078
:102860000000000000000000000000000000000068
:102870000A000000000000000000000000003139E4
:10288000322E3136382E312E310000000000486FD4
:102890007573686D616E6400000000000000000048
:1028A0000000000000000000000000000000000028
:1028B0000100000000000000000000000000010214
:1028C00003040102030406070809020406080000C5
:1028D00000A24A04000000000000000001020304FE
:0428E00006070809D6
:04000005080000ED02
:00000001FF
