:020000040800F2
:10000000D808002091010008990100089B01000810
:100010009D0100089F010008A101000800000000E8
:10002000000000000000000000000000A301000824
:10003000A501000800000000A7010008E11B00085E
:10004000AB010008AB010008AB010008AB010008E0
:10005000AB010008AB010008AB010008AB010008D0
:10006000AB010008AB010008AB010008AB010008C0
:10007000AB010008AB010008AB010008AB010008B0
:10008000AB010008AB010008AB010008AB010008A0
:10009000AB010008AB010008AB010008990600089D
:1000A000AB010008AB010008AB010008AB01000880
:1000B000AB010008AB010008AB010008AB01000870
:1000C000AB010008AB010008AB010008AB01000860
:1000D000AB010008051F0008A1200008AB010008C3
:1000E000AB010008AB010008AB01000800F002F80A
:1000F00000F03FF80AA090E8000C82448344AAF183
:100100000107DA4501D100F034F8AFF2090EBAE880
:100110000F0013F0010F18BFFB1A43F0010318473B
:10012000E82F000008300000103A24BF78C878C1DA
:10013000FAD8520724BF30C830C144BF04680C60ED
:10014000704700000023002400250026103A28BF35
:1001500078C1FBD8520728BF30C148BF0B60704739
:10016000642900F04980002070471FB51FBD10B5FD
:1001700010BD00F098F91146FFF7F7FF02F0C0FC40
:1001800000F0B6F903B4FFF7F2FF03BC00F0BAF9D0
:100190000948804709480047FEE7FEE7FEE7FEE71B
:1001A000FEE7FEE7FEE7FEE7FEE7FEE70448054957
:1001B000054A064B704700009D1C0008ED00000832
:1001C000D8020020D8080020D8040020D80400203D
:1001D0000FB41CB5074B06AA7B44694600900598EE
:1001E00000F043F90020694600F052F91CBC5DF8AC
:1001F00014FB0000B50200002DE9F0410646002482
:1002000010687529314616A510D0AFF3008000287C
:1002100002DA404213A507E031688A0701D512A52A
:1002200002E0490704D511A5012401E0AFF30080E5
:1002300000210A2206F1240709E0B0FBF2FCB0FB22
:10024000F2F302FB1C00303078541846491C002899
:10025000F3D123462A463046BDE8F04100F0A7B866
:10026000000000002D0000002B0000002000000016
:100270002DE9F05F894604464FF0000ADFF824B10B
:10028000FB44C0F820A02046E168884700287DD0C4
:10029000252806D0D4E901219047206A401C20621D
:1002A000F1E700255F462046E1688847202806469A
:1002B00007DB312E05D2B81910F8200C08B1054320
:1002C000F1E7A80701D525F00405C4F81CA0002714
:1002D000C4F818A02A2E09D0304602F095F938B398
:1002E00004EB8708303EC8F8186019E059F8041B81
:1002F000204604EB87029161E1688847012F06469A
:1003000018D1E069002820DA25F020051DE0D8F892
:10031000180000EB800006EB40003038C8F81800E9
:100320002046E1688847064602F06EF90028EED1C3
:10033000012F0AD02E2E08D12046E16888477F1C65
:100340000646022F45F02005C4DBA069002803DA29
:10035000404245F00105A061E80701D025F01005F5
:10036000A6B1A6F14100192802D8203645F400654F
:100370004A463146204625604D46FFF7F1FE60B102
:10038000012807D0ED1D25F0070000E007E000F18F
:10039000080978E705F1040975E730467AE7206A2D
:1003A000BDE8F09F702E00007047704770472DE940
:1003B000F0470D4699469246044600F1240801682C
:1003C000880604D5E06921F01001216000E00120D9
:1003D000A84201DD471B00E00027A1697A1902EB62
:1003E0000900081AA0612078C00602D42046AFF3A5
:1003F0000080002608E0D4E901211AF806009047A1
:10040000206A401C761C20624E45F4DB2078C00632
:100410000AD52046AFF3008006E0D4E90121302060
:100420009047206A401C2062381EA7F10107F4DCC7
:1004300007E0D4E9012118F805009047206A401C24
:100440002062281EA5F10105F3DC2046AFF30080F1
:100450002078000602D50220BDE8F0870120FBE7E6
:1004600001694A1C02610878704700B58FB0CDE978
:1004700001310021059105497944CDE90310114668
:100480006846FFF7F5FE0FB000BD0000E5FFFFFF77
:100490000A6802F8010B0A607047000000487047C4
:1004A0007802002070477546FFF7F8FFAE4605005A
:1004B0006946534620F00700854618B020B5FFF77F
:1004C00075FEBDE820404FF000064FF000074FF0EA
:1004D00000084FF0000B21F00701AC46ACE8C00962
:1004E000ACE8C009ACE8C009ACE8C0098D4670476B
:1004F00010B50446AFF300802046BDE81040FFF77A
:1005000041BE000001491820ABBEFEE726000200F4
:1005100010B5012000F0B4FB002000F0B1FB10BDCD
:1005200008B5014600200090034800900098084458
:1005300000900098008808BD006C004008B50022BB
:100540000092044A0092009A02440092009A1160BC
:1005500008BD0000006C0040F8B504460D46164684
:100560002248844204D10121042000F079FB2EE0CE
:100570001F48844204D10121082000F071FB26E0CD
:100580001C48844204D10121102000F069FB1EE0C8
:100590001948844204D10121202000F061FB16E0BB
:1005A0001648844204D10121402000F059FB0EE09E
:1005B0001348844204D10121802000F051FB06E061
:1005C0001048844203D10121801500F049FBA8B2F4
:1005D000ADF8000002208DF80200F0B28DF80300A3
:1005E0006946204600F036F9F8BD000000080140D9
:1005F000000C0140001001400014014000180140AF
:10060000001C01400020014070B501F0F5FA1348CC
:100610000068134AB0FBF2F1481EB0F1807F00D3AE
:100620001BE0481E4FF0E022506150170F220028B7
:1006300004DB13071C0E0B4B1C5406E013071D0EA6
:10064000094B00F00F04241F1D5500BF00204FF080
:10065000E02290610720106100BF70BDB40000204F
:1006600040420F0000E400E018ED00E000B5024653
:1006700003E04FF47A7000F005F8101EA2F10102B9
:10068000F7D100BD0349086000BF0249096800298D
:10069000FBD170471400002010B54FF4807000F0BB
:1006A0005BF878B10849002002F036FC07490120C8
:1006B00002F032FC4FF4807000F042F84FF480708A
:1006C00000F044F810BD00000000002002000020EF
:1006D00010B50121082000F0C3FA4FF480701449CE
:1006E00008800420C870134800F0B4F801210846BF
:1006F00000F0B6FA0821012000F08CF84FF4807069
:100700000D490860002008710C2048710120887193
:10071000084600F035F81720084908700F20487087
:1007200088700120C870084600F0FCF910BD000078
:1007300030000020000C0140280000203400002080
:100740000149086070470000140401400149086035
:100750007047000014040140014600200022074BAE
:100760001B6803EA0102054B14331B680B4013B1ED
:100770000AB1012000E000207047000000040140A1
:10078000002123498279002A3AD00A461268036878
:100790009A430B461A600A1D126803689A430B1DA0
:1007A0001A60027911440A6803681A430A60184AF9
:1007B0000832126803689A43154B08331A601A1DF1
:1007C000126803689A43124B0C331A604279102A5C
:1007D0000ED11A1F126803681A430D4B08331A60B2
:1007E0001A1D126803681A43094B0C331A600DE096
:1007F0000749427911440A6803681A430A6005E010
:10080000027911440A6803689A430A60704700003D
:100810000004014030B500228B071C0F0F2303FAA0
:1008200004F20B4B8C1053F824309343084C8D107A
:1008300044F8253023468C1053F824308C07240FBD
:1008400000FA04F42343024C8D1044F8253030BDE7
:10085000080001402DE9F041024600250026002055
:1008600000230024002791F803C00CF00F0591F835
:1008700003C00CF0100CBCF1000F03D091F802C0C3
:100880004CEA050591F800C0BCF1000F31D01468A6
:1008900000202BE04FF0010C0CFA00F3B1F800C07F
:1008A0000CEA03069E4220D183004FF00F0C0CFA95
:1008B00003F7BC4305FA03FC4CEA040491F803C0B7
:1008C000BCF1280F06D14FF0010C0CFA00FCC2F865
:1008D00014C00AE091F803C0BCF1480F05D14FF0F5
:1008E000010C0CFA00FCC2F810C0401C0828D1D33F
:1008F0001460B1F800C0BCF1FF0F34DD5468002073
:100900002EE000F1080C4FF0010808FA0CF3B1F8E2
:1009100000C00CEA03069E4221D183004FF00F0C69
:100920000CFA03F7BC4305FA03FC4CEA040491F803
:1009300003C0BCF1280F05D100F1080C08FA0CF82F
:10094000C2F8148091F803C0BCF1480F07D100F140
:10095000080C4FF0010808FA0CF8C2F81080401C8F
:100960000828CED35460BDE8F08170B5024600245B
:10097000002500230020958A138B1B0445EA0306FB
:1009800026F07F4404EA01068E4201D1012000E0F6
:10099000002070BD21B1028842F00102028004E013
:1009A00002884FF6FE731A400280704721B1028818
:1009B00042F48072028004E002884FF6FF631A401E
:1009C0000280704721B1028842F40072028004E084
:1009D00002884FF6FF531A40028070470CB502465A
:1009E000002000230193009300920B0F019321F04C
:1009F0007F41019B1BB1009B1433009303E0090C62
:100A0000009B18330093009B1B680B400BB1012027
:100A100000E000200CBD00002DE9F04385B0044645
:100A20000D460026B1460427DFF8CC80A6884FF695
:100A3000C0700640684600F033F9DDF808802F48A2
:100A4000B8FBF0F01FFA80F946EA0906A680208874
:100A50004FF6FE7108402080002629492868884208
:100A60000CD828684000B8FBF0F087B2042F00DAF9
:100A700004273E4309F10100208427E0E8884BF673
:100A8000FF71884206D1286800EB4000B8FBF0F007
:100A900087B209E0286800EBC00101EB0010B8FB49
:100AA000F0F087B247F48047C7F30B0008B947F06E
:100AB000010747F4004006434FF4967009FB00F02D
:100AC0004FF47A7190FBF1F0401C2084A6832088BB
:100AD00040F00100208026884FF6F5300640A888B7
:100AE0006989084306432680A8892989084320810B
:100AF00005B0BDE8F083000000127A0040420F000C
:100B0000A08601000146088AC0B2704712B141F0C8
:100B1000010102E04FF6FE73194001827047018225
:100B20007047000070B5002100230F22C47804B381
:100B3000154C246804F4E064C4F5E064210AC1F1B2
:100B40000403CA40447804FA03F184781440214332
:100B500009010E4C0678A155047804F01F05012404
:100B6000AC4005786D11AD0005F1E025C5F80041F8
:100B700009E0047804F01F050124AC40044D067818
:100B8000761145F8264070BD0CED00E000E400E071
:100B900080E100E002490143024A11607047000011
:100BA0000000FA050CED00E000B589B00121042039
:100BB00000F046F86420ADF8180040F2CF20ADF800
:100BC0001C000020ADF81E00ADF81A0006A9174859
:100BD00001F0ECF80121154801F090F86020ADF823
:100BE00008000120ADF80A000020ADF81000ADF8B3
:100BF0000E0002A90D4801F08DF808210B4801F004
:100C0000C7F80121082000F02BF84FF40070ADF870
:100C1000040018208DF8070002208DF8060001A9B5
:100C20000348FFF717FE09B000BD000000080040B0
:100C3000000C0140014908627047000000000E42AC
:100C400029B1064AD2690243044BDA6104E0034A3F
:100C5000D2698243014BDA61704700000010024004
:100C600029B1064A92690243044B9A6104E0034A9F
:100C700092698243014B9A61704700000010024064
:100C80000149086070470000400442420348406A3E
:100C900040F0807001494862704700000010024037
:100CA00030B500210022002400232D4D6D6805F091
:100CB0000C0121B1042905D0082923D105E0294DD3
:100CC000056022E0274D05601FE0254D6D6805F4A5
:100CD0007012234D6D6805F48034022505EB9242B5
:100CE0001CB9214D554305600BE01D4D6D6805F4A1
:100CF00000351DB11C4D5543056002E0194D5543AB
:100D0000056002E0174D056000BF00BF144D6D681F
:100D100005F0F0010909154D6B5C0568DD40456083
:100D20000F4D6D6805F4E061090A104D6B5C456874
:100D3000DD4085600A4D6D6805F46051C90A0B4DB0
:100D40006B5C4568DD40C560054D6D6805F440414C
:100D5000890B074D6B5CC568B5FBF3F5056130BDCC
:100D60000010024000127A0000093D009E000020A1
:100D7000AE00002010B501460022002300204A11D9
:100D8000012A02D1094C236806E0022A02D1074C4D
:100D9000236A01E0054C636A01F01F0201249440BC
:100DA0001C400CB1012000E0002010BD00100240EA
:100DB00000210B4A11700A4A203A82F820100128BB
:100DC00002D0042808D103E00121054A117004E093
:100DD0000521034A117000E000BF00BF704700000A
:100DE0002010024001490860704700003C04424264
:100DF0000249096A0143014A11627047001002402A
:100E000010B501214FF0C050FFF71AFF0120FFF786
:100E100011FFFFF77DFB0120FFF7CAFF00BF412054
:100E2000FFF7A8FF0028FAD04FF48070FFF7E0FF2B
:100E30000120FFF7D7FF00F065F800F059F8012115
:100E4000022000F027F800F053F847F6FF7000F09A
:100E50003FF800F04DF810BD0348008840F0100046
:100E600001490880704700000428004003480088BA
:100E70004FF6EF7108400149088070470428004090
:100E8000002103480188001F008841EA00407047A4
:100E90001C28004029B1064A12880243044B1A80DC
:100EA00004E0034A12888243014B1A807047000015
:100EB0000028004000B50246FFF7CEFF100C0349A2
:100EC0000880091D0A80FFF7D1FF00BD18280040E7
:100ED00000B50246FFF7C0FFC2F303400349088094
:100EE000091D0A80FFF7C2FF00BD0000082800406E
:100EF00000BF0348008800F020000028F9D07047A8
:100F000004280040074800884FF6F771084005495B
:100F1000088000BF0348008800F008000028F9D0CE
:100F2000704700000428004010B50820FFF7F8FAC9
:100F30004AF2A55188422ED039A13E48FFF748F920
:100F400001F0FEFB0021084601F008FC394801F0E1
:100F5000A3FCFFF755FF4FF4FA70FFF787FB36A1AC
:100F60003448FFF735F901F0EBFB0021084601F0AA
:100F7000F5FB304801F090FC4FF4FA70FFF776FB78
:100F800000222E210C2000F063FF4AF2A551082018
:100F9000FFF7D4FA3FE07B20FFF7ECFE68B12BA10E
:100FA0002448FFF715F901F0CBFB0021084601F0BA
:100FB000D5FB204801F070FC14E07A20FFF7DAFE40
:100FC00080B129A11B48FFF703F901F0B9FB00210B
:100FD000084601F0C3FB174801F05EFC4FF4FA70BD
:100FE000FFF744FB27A11348FFF7F2F801F0A8FB35
:100FF0000021084601F0B2FB0E4801F04DFC4FF411
:10100000FA70FFF733FBFFF77DFF01210846FFF77A
:1010100041FFFFF76DFFFFF739FE01F091FB10BDB7
:10102000525443206E6F742079657420636F6E662E
:10103000696700002801002052544320636F6E66E8
:101040006967757265642E2E2E2E0000506F7765CD
:1010500072204F6E205265736574206F63637572E2
:101060007265642E2E2E2E0045787465726E616C4A
:10107000205265736574206F636375727265642EA8
:101080002E2E2E004E6F206E65656420746F2063D7
:101090006F6E666967757265205254432E2E2E2E30
:1010A0000000000010B500F001F810BD0CB50020E4
:1010B000019000903348006840F480303149086066
:1010C00000BF3048006800F4003000900198401CD8
:1010D0000190009818B90198B0F5A06FF1D1294896
:1010E000006800F4003010B10120009001E0002001
:1010F00000900098012843D12348006840F0100078
:10110000214908600846006820F00300086008468E
:10111000006840F0020008601A48406819494860B9
:101120000846406848600846406840F4806048606F
:101130000846406820F47C1048600846406840F447
:10114000E81048600846006840F08070086000BF02
:101150000C48006800F000700028F9D00948406889
:1011600020F00300074948600846406840F002004C
:10117000486000BF0348406800F00C000828F9D11F
:101180000CBD000000100240002002400146654AEC
:1011900011706548008800283DD0634800880F28FA
:1011A00039DD61480088614A12889042F4D05F4876
:1011B0000088032290FBF2F302FB1300002842D1C7
:1011C0005A480088584A1288801A594A1080104696
:1011D00000884FF6FF7202EA4000564A10805448D9
:1011E00000884010544A1080524800884E4A1288A5
:1011F000801A504A1080504800884B4A1288801A42
:101200004D4A10804B48008860B94648007818B9AC
:101210000020444A10707EE042480078401C414A59
:10122000107078E044480088002874D13D48007868
:10123000642802D13B4A10706DE03A480078401EA5
:10124000384A107067E0394800884FF6FF7202EAAA
:101250004000374A1080354800884010374A1080D7
:1012600031480088324A1288801A324A10802E484B
:101270000088324A1288801A2F4A10802D48008830
:1012800060B92848007818B90020264A107042E05A
:1012900024480078401C234A10703CE0264800880F
:1012A00060B920480078642802D11E4A107032E0EC
:1012B0001C480078401E1B4A10702CE01D48008816
:1012C0001A4A1288801A1B4A10801B480088174A45
:1012D0001288801A184A10801648008860B9114890
:1012E000007818B900200F4A107014E00D480078FB
:1012F000401C0C4A10700EE00F48008858B909488D
:101300000078642802D1074A107004E0054800788C
:10131000401E044A107004480088044A10800148A6
:10132000007870474400002000000020500000209A
:10133000460000204A0000204C0000204800002009
:1013400010B5082001F068FE01280CD10020FE49EC
:101350000880FE4908800120FD4908700020FD49F1
:10136000087001F0EDF9F3E336E0FBA1FE48FEF76B
:101370002FFF0021084601F0F1F9FB4801F08CFA3B
:10138000F148008801F026F8F849088008460088EE
:10139000ED490880F5480088022803D1EC4908701F
:1013A00001F0CEF9082001F037FE012807D1002016
:1013B000E74908700120E749087001F0C1F90120F0
:1013C00001F02AFE012807D101F0BAF90020E04916
:1013D00008700120E6490870DD4800780128C4D073
:1013E00022E0E4480288E4A1DF48FEF7F1FE002194
:1013F000084601F0B3F9DC4801F04EFAE2480088F3
:10140000FFF7C4FEDB49088008460088DE490880F3
:10141000012001F001FE012806D1CD49087000200D
:10142000D349087001F08CF9D14800780128D8D050
:1014300040E0D6A1CC48FEF7CBFE0021084601F0E3
:101440008DF9C94801F028FABF48008800F0C2FFB2
:10145000C649088008460088BB490880C348008800
:1014600028B90120BA49087001F06AF908E0BF48BC
:101470000088042804D10320B549087001F060F900
:10148000082001F0C9FD012807D10020B0490870EB
:101490000120B049087001F053F9012001F0BCFDB2
:1014A000012807D10020AA4908700220B04908701D
:1014B00001F046F9A64800780228BAD023E0B748E0
:1014C0000288B7A1A848FEF783FE0021084601F074
:1014D00045F9A54801F0E0F9B5480088FFF756FE48
:1014E000AE49088008460088B1490880012001F013
:1014F00093FD012807D102209549087000209C49DE
:10150000087001F01DF99A4800780228D7D036E01B
:10151000A8A19548FEF75CFE0021084601F01EF9DF
:10152000914801F0B9F98848008800F053FF8F49CD
:10153000088008460088844908808C480088022872
:1015400003D18349087001F0FBF8082001F064FD25
:10155000012807D100207E49087001207D490870CC
:1015600001F0EEF8012001F057FD012807D100201D
:101570007749087003207E49087001F0E1F874484B
:1015800000780328C4D05DE08FA17748FEF720FEE5
:101590000021084601F0E2F8734801F07DF96B483C
:1015A000008800F017FF8C490880084600886749CA
:1015B000088089480088022804D104206C490870FA
:1015C00001F0BEF8082001F027FD012807D1032013
:1015D0005F49087000206649087001F0B1F80120E9
:1015E00001F01AFD01282DD17CA000F039FDC820A2
:1015F000FFF73CF801F0A4F811E001F0A1F87948F8
:10160000028879480178794801F040F87849086003
:1016100000207449088040F6B830FFF727F8744876
:1016200000680128E9D1002003E000216F4A11542D
:10163000401C6D4909788842F7DB00206D4908603D
:101640006B4908604A48007803289DD067E06AA18A
:101650004548FEF7BDFD0021084601F07FF84248ED
:1016600001F01AF93948008800F0B4FE5A490880A0
:1016700008460088354908805748008820B903206B
:101680003B49087001F05CF853480088042804D1F5
:1016900005203749087001F053F8082001F0BCFC20
:1016A000012807D103202A4908700020304908701A
:1016B00001F046F8012001F0AFFC01282FD152A023
:1016C00000F0CEFC6420FEF7D1FF01F039F811E004
:1016D00001F036F84348028843480178434800F057
:1016E000D5FF4349086000203E49088040F6B830E5
:1016F000FEF7BCFF3E4800680128E9D101F020F860
:10170000002003E00021394A1154401C3649097871
:101710008842F7DB002037490860354908601448E3
:101720000078042893D0D4E03AA10F48FEF750FD8A
:101730000021084601F012F80B4801F0ADF803480B
:10174000008800F047FE6DE0860000208A0000203F
:1017500082000020840000204D656E750A312D56F0
:101760006F6C756D65000000080100208800002086
:10177000830000200600002020202020566F6C757A
:101780006D653A2564202000040000204D656E75CB
:101790000A322D4C69676874000000000A000020BE
:1017A000202020204C696768743A256420200000BE
:1017B000080000204D656E750A332D576966692053
:1017C00053657474696E6700312D776966692063AB
:1017D0006F6E6669670000008C00002041540D0A9E
:1017E000000000009A0000209800002068010020FE
:1017F0009400002090000020322D495020616E643A
:10180000204D41430000000041542B4349465352B0
:101810000D0A0000332D57694669205374617475B1
:1018200073000000CD49088008460088CC49088034
:10183000CA480088022804D10420CA49087000F070
:101840007FFFC6480088062803D1C649087000F00B
:1018500077FF082001F0E0FB012807D10320C249EF
:1018600008700020BF49087000F06AFF012001F0F5
:10187000D3FB01282DD1BDA000F0F2FB6420FEF7C0
:10188000F5FE11E000F05CFFBB480288BB48017820
:10189000BB4800F0FBFEBB4908600020B649088049
:1018A00040F6B830FEF7E2FEB64800680128E9D1FC
:1018B00000F046FF002003E00021B14A1154401C13
:1018C000AE4909788842F7DB0020AF490860AD498E
:1018D0000860A448007805283FF426AF66E0ABA175
:1018E000AE48FEF775FC0021084600F037FFAB4814
:1018F00000F0D2FF9A48008800F06CFD97490880FC
:10190000084600889649088094480088042804D135
:1019100005209449087000F013FF904800880828BB
:1019200004D107208F49087000F00AFF082001F059
:1019300073FB012807D103208B49087000208949D7
:10194000087000F0FDFE012001F066FB01282DD19A
:1019500093A000F085FB6420FEF788FE11E000F004
:10196000EFFE8548028885480178854800F08EFEA4
:101970008449086000208049088040F6B830FEF7AE
:1019800075FE804800680128E9D100F0D9FE0020EA
:1019900003E000217A4A1154401C784909788842B2
:1019A000F7DB002078490860764908606D480078C8
:1019B000062894D065E07DA17848FEF709FC002157
:1019C000084600F0CBFE754800F066FF64480088CA
:1019D00000F000FD614908800846008860490880E1
:1019E0005E480088062803D15E49087000F0A8FE12
:1019F0005A4800880A2804D108205A49087000F083
:101A00009FFE082001F008FB012807D1032056495A
:101A1000087000205349087000F092FE012001F088
:101A2000FBFA01282DD165A000F01AFB6420FEF717
:101A30001DFE11E000F084FE4F4802884F480178F7
:101A40004F4800F023FE4F49086000204A490880B3
:101A50004FF4FA60FEF70AFE4A4800680128E9D10F
:101A600000F06EFE002003E00021454A1154401CA6
:101A7000424909788842F7DB002043490860414920
:101A8000086038480078072895D05DE04DA14348AC
:101A9000FEF79EFB0021084600F060FE3F4800F084
:101AA000FBFE2F48008800F095FC2C490880084672
:101AB00000882B49088029480088082804D107207D
:101AC0002849087000F03CFE082001F0A5FA012822
:101AD00007D103202449087000202249087000F033
:101AE0002FFE012001F098FA01282DD138A000F036
:101AF000B7FA6420FEF7BAFD11E000F021FE1E489F
:101B000002881E4801781E4800F0C0FD1D4908608B
:101B10000020194908804FF47A70FEF7A7FD194894
:101B200000680128E9D100F00BFE002003E000214D
:101B3000134A1154401C114909788842F7DB0020F0
:101B4000114908600F4908600648007808289DD0B0
:101B50002248007801287FF407AC10BD8C000020DB
:101B60008A000020830000208200002041542B4383
:101B7000574A41503F0D0A009A000020980000206B
:101B8000680100209400002090000020342D576947
:101B9000466920486F7473706F740000080100205C
:101BA00041542B43575341503F0D0A00352D457189
:101BB00075616C697A6572204F66660041544530E4
:101BC0000D0A0000362D5265736574204553500090
:101BD00041542B5253540D0A000000008400002091
:101BE0000448006820B103480068401E01490860AD
:101BF000704700001400002010B5002100200022D2
:101C0000214B5B6803F00C0121B1042906D008299F
:101C100028D107E01D4B1E4C236027E01B4B1C4CBA
:101C2000236023E0184B5B6803F47010164B5B686D
:101C300003F48032022303EB904022B9154B434357
:101C4000134C23600DE0104B5B6803F4003323B1A9
:101C5000104B43430E4C236003E00C4B43430C4CAE
:101C6000236003E0094B0A4C236000BF00BF064B12
:101C70005B68C3F30313084CE15C054B1B68CB4066
:101C8000034C236010BD00000010024000127A00D7
:101C9000B400002000093D00B800002010B5134832
:101CA000006840F00100114908600846406810498A
:101CB00008400E494860084600680E4908400B4934
:101CC00008600846006820F48020086008464068E4
:101CD00020F4FE0048604FF41F008860FFF7E2F92F
:101CE0004FF000600449086010BD00000010024081
:101CF0000000FFF8FFFFF6FE08ED00E021B10288CA
:101D000042F00102028004E002884FF6FE731A409E
:101D10000280704770B5002200230024058C4EF627
:101D2000FF7635400584038C8488828B48F6FF75E6
:101D30002A404FF6FF452A400D884FF6FF7606EA07
:101D400005252A434DF6FF752B400D8906EA05351A
:101D50002B434D8806EA05352B430B4DA84202D094
:101D60000A4DA84208D14BF6FF752C408D894FF6DD
:101D7000FF7606EA85152C4384808283CD88A0F8FF
:101D80004050038470BD0000002C0140003401402D
:101D90000A460021818B4FF2FF7319404FF6FF7303
:101DA00003EA02231943818370470000002202885E
:101DB0001D4B98420ED01D4B98420BD0B0F1804F76
:101DC00008D01B4B984205D01A4B984202D01A4BB0
:101DD000984204D14FF68F731A404B881A43174B21
:101DE000984207D0164B984204D04FF6FF431A4052
:101DF000CB881A4302808B8883850B8803850A4B26
:101E000098420BD0094B984208D00E4B984205D00F
:101E10000D4B984202D00D4B984201D10B7A0386AC
:101E20000123838270470000002C014000340140F0
:101E30000004004000080040000C0040001000407A
:101E400000140040004001400044014000480140AF
:101E50002DE9F04104460D461646FFF749F84FF4C8
:101E600061606043C5EB051100EB810087193846BE
:101E7000FFF720F8FFF73CF8BDE8F081F8B504461D
:101E8000002500260027FEF7FBFF1649884204D1F3
:101E90000020FFF70FF8FFF72BF84FF46160B4FB59
:101EA000F0F5B4FBF0F100FB11403C21B0FBF1F682
:101EB0004FF46160B4FBF0F100FB11403C21B0FB3A
:101EC000F1F201FB120733462A4607A10C4800979E
:101ED000FEF77EF90021084600F040FC084800F0BB
:101EE000DBFCF8BD7F51010054696D653A25302E49
:101EF00032643A25302E32643A25302E32640000A6
:101F00002801002010B540F22551134800F09CF93B
:101F100000B3114800F054FA1049087008460078E0
:101F20000A280ED000200E4908700C4800780D4990
:101F30000D4A126888540C480068401C0A49086021
:101F400008E0012006490870084908700648007832
:101F50000749087010BD0000003801400C00002047
:101F60000D00002068010020900000209A00002051
:101F70009800002070B586B004460E461546012133
:101F80008803FEF76DFE02940020ADF814000C20CB
:101F9000ADF812000020ADF81000ADF80E00ADF85D
:101FA0000C0002A9244800F09FF90121224800F00A
:101FB00032F901210520FEF753FE4FF40070ADF811
:101FC000040018208DF8070002208DF8060001A9F2
:101FD0001A48FEF73FFC4FF48060ADF8040004207F
:101FE0008DF8070003208DF8060001A91348FEF7BD
:101FF00031FC012D19D14FF4E060FEF7CBFD00213B
:10200000481E00F0EDFA25208DF8000000208DF824
:10201000020001208DF803006846FEF783FD0122CF
:102020003146054800F03AF904E000223146024802
:1020300000F034F906B070BD0038014000080140DE
:1020400010B5044600BF8021044800F0F0F80028D5
:10205000F9D02146014800F0B8F910BD0038014020
:1020600010B5044607E014F8010BFFF7E9FF8021E3
:10207000034800F0C7F820780028F4D110BD000014
:102080000044004010B500BF2021044800F0CFF804
:102090000028F9D0014800F093F910BD0044004039
:1020A00010B540F225510F4800F0CEF8C8B1FFF747
:1020B000E9FF0D4908700846007821280ED000205D
:1020C0000A4908700848007809490A4A1268885481
:1020D00008480068401C0749086002E001200349E5
:1020E000087010BD004400400C0000200D000020CE
:1020F000680100201000002070B586B004460E462E
:10210000154601214804FEF79BFD02940020ADF81E
:1021100014000C20ADF812000020ADF81000ADF84E
:102120000E00ADF80C0002A9234800F0DDF80121F3
:10213000214800F070F801210520FEF791FD0420F0
:10214000ADF8040018208DF8070002208DF8060075
:1021500001A91A48FEF77EFB0820ADF80400042010
:102160008DF8070002208DF8060001A91348FEF73C
:1021700071FB012D19D14FF4E060FEF70BFD00213A
:10218000481E00F02DFA26208DF8000000208DF862
:10219000020001208DF803006846FEF7C3FC01220F
:1021A0003146054800F07AF804E000223146024842
:1021B00000F074F806B070BD004400400008014013
:1021C00010B5044600BF8021044800F030F8002814
:1021D000F9D02146014800F0F8F810BD0044004055
:1021E00010B5044607E014F8010BFFF7E9FF802162
:1021F000034800F007F820780028F4D110BD000053
:102200000044004001F40072B2F5007F00D100BF2D
:10221000CA430280704721B1828942F40052828110
:1022200004E082894DF6FF731A40828170470246AE
:102230000020B1F5007F00D100BF13880B400BB127
:10224000012000E00020704770B502460024002302
:102250000025002040F66A16B14200D100BFC1F34C
:10226000421501F01F03012606FA03F3012D02D1E6
:102270009689334006E0022D02D1168A334001E0F0
:10228000968A33400C12012606FA04F4168834406C
:1022900013B10CB1012000E0002070BDF0B5034681
:1022A000002400260025002040F66A17B94200D11C
:1022B00000BF1846C1F3421401F01F06012707FAB8
:1022C00006F5012C01D10C3004E0022C01D11030B4
:1022D00000E014301AB107682F43076002E0076876
:1022E000AF430760F0BD00002DE9F04786B005461A
:1022F0000E460024A24600BFA1460027B08900B1C7
:1023000000BF2F462C8A4CF6FF700440F08804432F
:102310002C82AC894EF6F3100440B0883189084312
:10232000718908430443AC81AC8A4FF6FF400440F6
:10233000B0890443AC8201A8FEF7B2FC1F48874273
:1023400002D1DDF810A001E0DDF80CA0A88900F4AE
:10235000004040B10AEBCA0000EB0A1031684900A6
:10236000B0FBF1F807E00AEBCA0000EB0A10316895
:102370008900B0FBF1F86420B8FBF0F004012009FB
:10238000642101FB1089A88900F4004040B132208B
:1023900000EBC900B0FBF1F000F00700044308E0D7
:1023A000322000EB09106421B0FBF1F000F00F00C7
:1023B00004432C8106B0BDE8F087000000380140DE
:1023C00001468888C0F308007047C1F30802828084
:1023D0007047000001467B4A11707B480088002846
:1023E00056D079480088102852DA77480088774A12
:1023F00012889042F4D075480088032290FBF2F3D3
:1024000002FB130000285BD170480088092814D112
:102410006E4800886C4A1288801A6D4A10801046F7
:102420000088C0106B4A1080694800884FF6FF7220
:1024300002EAC000684A108013E064480088624ADB
:102440001288801A624A1080104600884FF6FF7288
:1024500002EA40005F4A10805D48008840105E4AF2
:1024600010805C480088584A1288801A594A1080A7
:1024700059480088544A1288801A574A1080554893
:10248000008860B94F48007818B900204D4A107094
:1024900090E04C480078401E4A4A10708AE04E484E
:1024A00000880028F4D147480078642802D1454AC2
:1024B00010707FE043480078401C424A107079E079
:1024C0004148008809280DD140480088C010404A82
:1024D00010803E4800884FF6FF7202EAC0003F4A73
:1024E00010800CE0394800884FF6FF7202EA400085
:1024F000374A1080354800884010384A10803248EA
:102500000088334A1288801A324A10802E48008888
:10251000324A1288801A304A10802E48008860B9EA
:102520002848007818B90020264A107042E0254853
:102530000078401E234A10703CE02748008860B9AC
:1025400020480078642802D11E4A107032E01D48ED
:102550000078401C1B4A10702CE01E4800881B4A63
:102560001288801A1B4A10801B480088174A12885C
:10257000801A194A10801748008860B911480078FD
:1025800018B900200F4A107014E00E480078401E61
:102590000C4A10700EE01048008858B909480078BD
:1025A000642802D1074A107004E006480078401CF5
:1025B000044A107004480088044A108001480078DA
:1025C0007047000044000020000000204E00002062
:1025D000460000204A0000204C0000204800002057
:1025E00010B5002804DB0A07130E054A135406E051
:1025F0000A07140E034A00F00F031B1FD45410BD2A
:1026000000E400E018ED00E030380A2801D2012093
:10261000704700207047000000B585B001214805D3
:10262000FEF70EFB164801900020ADF808004BF6AF
:10263000FF70ADF80A000020ADF80C00ADF80E00F8
:102640004FF48040ADF8100001A90E48FEF7E4F900
:1026500001210C48FEF79EF901210820FEF700FB3E
:10266000C020ADF800001C208DF8030002208DF87A
:10267000020069460448FEF7EDF805B000BD000011
:10268000A086010000540040000C014070B50446D3
:102690000D461646012E15D10020264908600CE093
:1026A00024480068215C2448224A1268815400268C
:1026B00020480068401C1F4908601E480068202808
:1026C000EEDB24E0002005E01B4A00F11001515C24
:1026D0001154401C0F28F7DD00201849088012E033
:1026E00014480068225C14491448008810300A54C9
:1026F000002610480068401C0E4908600F480088FA
:10270000401C0E4908800D4800881028E8DB002195
:10271000084600F023F8084800F0BEF84FF4AF7008
:10272000FDF7A4FF03480068A84201DB012070BD4B
:1027300000BFFCE71C000020C80000202200002091
:1027400010B5012000F0CAF910BD10B5062000F048
:10275000C5F910BD10B500F031F910BD70B50446D3
:102760000D462DB9E1B241F0800000F0B7F906E066
:1027700004F14001C9B241F0800000F0AFF970BD32
:1027800010B50446FDF740FF01210820FEF768FA66
:1027900001210820FEF764FA40F20340274908802F
:1027A0001020C870022088702548FEF753F84FF4B7
:1027B000F040224908801020C8700220887020480C
:1027C000FEF748F84FF47A50FDF75CFF4FF40050E5
:1027D0001B49103108604000086000F0E1F841F248
:1027E0008830FDF74FFF00F0DBF84020FDF74AFF8F
:1027F00000F0D6F84020FDF745FF4FF40050104997
:10280000103108604000091D086000F0C9F8402040
:10281000FDF738FF282000F061F9082000F05EF98C
:10282000FFF78EFFFFF791FF064804700146097815
:1028300041F0080000F052F910BD00002400002013
:10284000000C01401800002070B50546402D01DA4B
:10285000402400E0002444F0800000F03FF970BD07
:1028600070B50546FFF776FF04460A2D03D12046D2
:10287000FFF7EAFF0FE0102C04D10021C02000F088
:10288000ADF805E0502C03D10021802000F0A6F81F
:10289000284600F02CF970BD10B5044603E014F88A
:1028A000010BFFF7DDFF20780028F8D110BD0000F4
:1028B00070B50546002402203749086015B1400272
:1028C000086004E04FF480603349091D08604FF44C
:1028D000F040324908804820C870022088702E4895
:1028E0001038FDF7B7FF01202B4908600220FDF7E3
:1028F000C9FE29480838006800F4804008B144F057
:10290000100425480838006800F4005008B144F06D
:10291000200421480838006800F4805008B144F0D1
:1029200040041D480838006800F4006008B144F015
:10293000800401201849091D08600220FDF7A2FE4D
:102940000120154908600220FDF79CFE1248083856
:10295000006800F4804008B144F001040E480838D3
:10296000006800F4005008B144F002040A48083836
:10297000006800F4805008B144F0040406480838A8
:10298000006800F4006008B144F008040120024926
:10299000091D0860204670BD100C01402400002075
:1029A00010B50120044908600220FDF76BFE0120EC
:1029B0000149091D086010BD100C014010B500BF91
:1029C0000020FFF775FF00F080000028F8D10420F8
:1029D000FDF758FE0020FFF76BFF10BD70B50446F1
:1029E0000D4602203B4908601DB14002091F0860E6
:1029F00003E04FF48060374908604FF4F0403649F7
:102A000008801020C8700220887032481438FDF702
:102A100021FF4FF400602F4908604000086040002B
:102A200008604000086004F0800010B1C814091F5D
:102A3000086004F0400020B14FF480502549091F80
:102A4000086004F0200020B14FF400502149091F14
:102A5000086004F0100020B14FF480401D49091FA8
:102A60000860FFF79DFF4FF400601A4908604000BE
:102A70000860400008604000086004F0080010B1E1
:102A8000C814091F086004F0040020B14FF48050FE
:102A90001049091F086004F0020020B14FF40050F3
:102AA0000C49091F086004F0010020B14FF4804078
:102AB0000849091F0860FFF773FF4FF400600549DC
:102AC000091F08604000086040000860400008607E
:102AD00070BD0000140C01402400002010B5044615
:102AE000FFF76CFF00212046FFF778FF10BD10B5FF
:102AF0000446FFF763FF01212046FFF76FFF10BD7B
:102B0000FDF782FD1022D1027848FDF725FD102245
:102B100011017748FDF720FD102251017348FDF7A0
:102B20001BFD102251027348FDF716FD10220121F2
:102B30006F48FDF711FD102202216D48FDF70CFDD5
:102B40000420FFF71DFE00F0F7F8FDF7C1FD00219E
:102B50000846FFF703FE68A0FFF79EFE00243EE054
:102B60004FF4005063490861C820FDF77FFD4FF422
:102B700000705E4910310860C820FDF777FD4FF402
:102B800000405A4910310860C820FDF76FFD4FF42E
:102B90008070574910310860C820FDF767FD4FF479
:102BA000005054494861C820FDF760FD4FF40070A3
:102BB0004E4914310860C820FDF758FD4FF400401D
:102BC0004A4914310860C820FDF750FD4FF4807069
:102BD000474914310860C820FDF748FD641C012CEA
:102BE000BEDB00210846FFF7B9FD47A0FFF754FE02
:102BF0004FF47A70FDF73AFDFFF7A2FDFEF794F966
:102C0000FDF7D2FF012240F225514FF4E130FFF7EA
:102C1000B1F9012240F225514FF4E130FFF76CFA8F
:102C200063E0FEF72DF90446FFF728F9FEF788FB6D
:102C3000012000F0F1F9012807D12D480C3000687F
:102C400080F480702A490C310860022000F0E4F919
:102C5000012807D125480C30006880F40040234942
:102C60000C3108600C2000F0D7F9012807D120486A
:102C70000C30006880F002001D490C310860032010
:102C800000F0CAF9012807D119480C30006880F01B
:102C9000010017490C3108601F480088FEF776FADA
:102CA0001E490880084600881B4908801C48008887
:102CB00040F2CF214843642190FBF1F0194908808C
:102CC00019480078012810D1FFF73AFD01210020B2
:102CD000FFF744FD1548FFF7DFFD15A0FFF780FA69
:102CE000002014490860104908709AE7000C014060
:102CF0000008014000100140506C65617365205769
:102D00006169742E2E2E0000202A2A2A4869204844
:102D10006F452A2A2A200000040000200600002017
:102D20000A000020400800400D000020680100203B
:102D30006F6B00001000002038B5002000900125C6
:102D4000FFF76AFC6321802000F076F969465D2078
:102D500000F0E2F8BDF80000242800D00025694604
:102D6000012000F0D9F8BDF8000000F0800000B1AB
:102D70000025012D7ED100215E2000F05DF9882123
:102D80001E2000F059F988211F2000F055F98821F4
:102D9000202000F051F98821212000F04DF98821F0
:102DA000222000F049F98821232000F045F98821EC
:102DB000242000F041F98821252000F03DF98821E8
:102DC000262000F039F9A521272000F035F9A521AA
:102DD000282000F031F9A521292000F02DF9B92192
:102DE0002A2000F029F901212B2000F025F90121EA
:102DF0002C2000F021F900212D2000F01DF90021E8
:102E00002E2000F019F901212F2000F015F90121E1
:102E1000302000F011F9FF21312000F00DF9FF21E1
:102E2000322000F009F90121332000F005F91021CA
:102E3000342000F001F90221352000F0FDF80F21C7
:102E4000362000F0F9F80F21372000F0F5F80021C6
:102E5000382000F0F1F80021392000F0EDF80121D0
:102E60003A2000F0E9F801213B2000F0E5F8FF21CD
:102E70003C2000E04DE000F0DFF8FF213D2000F0B5
:102E8000DBF800213E2000F0D7F800213F2000F0C1
:102E9000D3F80021402000F0CFF800215B2000F0A3
:102EA000CBF810215C2000F0C7F804215D2000F071
:102EB000C3F80B217B2000F0BFF800217C2000F03C
:102EC000BBF8CA217D2000F0B7F883217E2000F0F6
:102ED000B3F8B6217F2000F0AFF84C215E2000F05F
:102EE000ABF800240FE0412101EB4401C8B20A21F4
:102EF00000F0A2F8422101EB4401C8B2FF2100F02A
:102F00009BF8601CC4B20D2CEDDB4C215E2000F060
:102F100093F8284638BD000070B504460D460126DA
:102F200000BF4FF400313848FDF758FD0028F8D1B4
:102F300001213548FDF73AFD00BF34493248FDF71D
:102F400014FD0028F9D00022B4212F48FDF7DEFD42
:102F500000BF2F492C48FDF708FD0028F9D02A486A
:102F60001830008800F0010000284AD026481830A8
:102F7000008800F00200002843D021462248FDF7D7
:102F8000CEFD00BF2249891C1F48FDF7EEFC00283A
:102F9000F8D001211C48FDF709FD00BF1B491A4864
:102FA000FDF7E3FC0028F9D00122B4211648FDF713
:102FB000ADFD00BF1549491C1348FDF7D6FC00289C
:102FC000F8D011481830008800F00200B8B100BFF6
:102FD0000E493F310C48FDF7C8FC0028F8D00A48DC
:102FE000FDF790FD288001210748FDF7EBFC00BFAD
:102FF00008490548FDF7F2FC0028F9D102E0002657
:1030000000E00026304670BD00540040010003007F
:103010008200070010000010014606480088884220
:1030200006D100BF034800888842FBD001207047CA
:103030000020FCE70200002070B504460D46012682
:1030400000BF4FF400312748FDF7C8FC0028F8D135
:1030500001212448FDF7AAFC00BF23492148FDF7C0
:1030600084FC0028F9D00022B4211E48FDF74EFD53
:1030700000BF1E491B48FDF778FC0028F9D019480D
:103080001830008800F0010048B316481830008856
:1030900000F0020018B321461248FDF740FD00BFC2
:1030A0001249891C0F48FDF760FC0028F8D0E9B2EE
:1030B0000C48FDF734FD00BF0C49891C0948FDF799
:1030C00054FC0028F8D001210648FDF77BFC00BF26
:1030D00007490448FDF782FC0028F9D100E00026EA
:1030E000304670BD0054004001000300820007001C
:1030F00010000010040000080000000000000002A2
:10310000000100001000000028310008000000202D
:10311000C800000028010008F0310008C8000020A5
:1031200010080000440100080000000032003200D6
:103130001E001E0000000000000000000000000053
:10314000000000000000000000000000000000007F
:10315000000000000000000000000000000000006F
:103160000000000000000000000000000A00000055
:10317000000000000000000000003139322E31361E
:10318000382E312E310000000000486F7573686DD5
:10319000616E6400000000000000000000000000FC
:1031A000000000000000000000000000010000001E
:1031B000000000000000000000000000000000000F
:1031C00000000000000000000000010203040102F2
:1031D00003040607080902040608000000A24A04C6
:1031E00000000000000000000102030406070809B7
:04000005080000ED02
:00000001FF
